{"contracts/ReentrancyVulnerableVault.sol":{"ReentrancyVulnerableVault":{"abi":[{"inputs":[],"stateMutability":"nonpayable","type":"constructor"},{"anonymous":false,"inputs":[{"indexed":true,"internalType":"address","name":"user","type":"address"},{"indexed":false,"internalType":"uint256","name":"amount","type":"uint256"}],"name":"Deposit","type":"event"},{"anonymous":false,"inputs":[{"indexed":true,"internalType":"address","name":"attacker","type":"address"},{"indexed":false,"internalType":"uint256","name":"drainedAmount","type":"uint256"}],"name":"VaultDrained","type":"event"},{"anonymous":false,"inputs":[{"indexed":true,"internalType":"address","name":"user","type":"address"},{"indexed":false,"internalType":"uint256","name":"amount","type":"uint256"}],"name":"Withdrawal","type":"event"},{"inputs":[{"internalType":"address","name":"user","type":"address"}],"name":"balanceOf","outputs":[{"internalType":"uint256","name":"","type":"uint256"}],"stateMutability":"view","type":"function"},{"inputs":[],"name":"deposit","outputs":[],"stateMutability":"payable","type":"function"},{"inputs":[],"name":"getFlag","outputs":[{"internalType":"string","name":"","type":"string"}],"stateMutability":"view","type":"function"},{"inputs":[],"name":"owner","outputs":[{"internalType":"address","name":"","type":"address"}],"stateMutability":"view","type":"function"},{"inputs":[],"name":"reset","outputs":[],"stateMutability":"nonpayable","type":"function"},{"inputs":[],"name":"totalVaultBalance","outputs":[{"internalType":"uint256","name":"","type":"uint256"}],"stateMutability":"view","type":"function"},{"inputs":[{"internalType":"address","name":"","type":"address"}],"name":"userBalances","outputs":[{"internalType":"uint256","name":"","type":"uint256"}],"stateMutability":"view","type":"function"},{"inputs":[],"name":"vaultDrained","outputs":[{"internalType":"bool","name":"","type":"bool"}],"stateMutability":"view","type":"function"},{"inputs":[{"internalType":"uint256","name":"amount","type":"uint256"}],"name":"withdraw","outputs":[],"stateMutability":"nonpayable","type":"function"},{"inputs":[],"name":"withdrawalCounter","outputs":[{"internalType":"uint256","name":"","type":"uint256"}],"stateMutability":"view","type":"function"},{"stateMutability":"payable","type":"receive"}],"evm":{"bytecode":{"linkReferences":{},"object":"60806040523480156200001157600080fd5b50336000806101000a81548173ffffffffffffffffffffffffffffffffffffffff021916908373ffffffffffffffffffffffffffffffffffffffff16021790555068056bc75e2d631000006004819055506040518060600160405280602a815260200162001325602a9139600190816200008c91906200030d565b50620003f4565b600081519050919050565b7f4e487b7100000000000000000000000000000000000000000000000000000000600052604160045260246000fd5b7f4e487b7100000000000000000000000000000000000000000000000000000000600052602260045260246000fd5b600060028204905060018216806200011557607f821691505b6020821081036200012b576200012a620000cd565b5b50919050565b60008190508160005260206000209050919050565b60006020601f8301049050919050565b600082821b905092915050565b600060088302620001957fffffffffffffffffffffffffffffffffffffffffffffffffffffffffffffffff8262000156565b620001a1868362000156565b95508019841693508086168417925050509392505050565b6000819050919050565b6000819050919050565b6000620001ee620001e8620001e284620001b9565b620001c3565b620001b9565b9050919050565b6000819050919050565b6200020a83620001cd565b620002226200021982620001f5565b84845462000163565b825550505050565b600090565b620002396200022a565b62000246818484620001ff565b505050565b5b818110156200026e57620002626000826200022f565b6001810190506200024c565b5050565b601f821115620002bd57620002878162000131565b620002928462000146565b81016020851015620002a2578190505b620002ba620002b18562000146565b8301826200024b565b50505b505050565b600082821c905092915050565b6000620002e260001984600802620002c2565b1980831691505092915050565b6000620002fd8383620002cf565b9150826002028217905092915050565b620003188262000093565b67ffffffffffffffff8111156200033457620003336200009e565b5b620003408254620000fc565b6200034d82828562000272565b600060209050601f83116001811462000385576000841562000370578287015190505b6200037c8582620002ef565b865550620003ec565b601f198416620003958662000131565b60005b82811015620003bf5784890151825560018201915060208501945060208101905062000398565b86831015620003df5784890151620003db601f891682620002cf565b8355505b6001600288020188555050505b505050505050565b610f2180620004046000396000f3fe6080604052600436106100955760003560e01c8063b682460311610059578063b68246031461019a578063cc5d195e146101c5578063d0e30db0146101f0578063d826f88f146101fa578063f9633930146102115761009c565b806320d786b5146100a157806326224c64146100cc5780632e1a7d4d1461010957806370a08231146101325780638da5cb5b1461016f5761009c565b3661009c57005b600080fd5b3480156100ad57600080fd5b506100b661023c565b6040516100c391906108c8565b60405180910390f35b3480156100d857600080fd5b506100f360048036038101906100ee9190610946565b610242565b60405161010091906108c8565b60405180910390f35b34801561011557600080fd5b50610130600480360381019061012b919061099f565b61025a565b005b34801561013e57600080fd5b5061015960048036038101906101549190610946565b610565565b60405161016691906108c8565b60405180910390f35b34801561017b57600080fd5b506101846105ae565b60405161019191906109db565b60405180910390f35b3480156101a657600080fd5b506101af6105d2565b6040516101bc9190610a11565b60405180910390f35b3480156101d157600080fd5b506101da6105e5565b6040516101e791906108c8565b60405180910390f35b6101f86105eb565b005b34801561020657600080fd5b5061020f6106c6565b005b34801561021d57600080fd5b506102266107ce565b6040516102339190610abc565b60405180910390f35b60055481565b60036020528060005260406000206000915090505481565b80600360003373ffffffffffffffffffffffffffffffffffffffff1673ffffffffffffffffffffffffffffffffffffffff1681526020019081526020016000205410156102dc576040517f08c379a00000000000000000000000000000000000000000000000000000000081526004016102d390610b2a565b60405180910390fd5b6000811161031f576040517f08c379a000000000000000000000000000000000000000000000000000000000815260040161031690610b96565b60405180910390fd5b806004541015610364576040517f08c379a000000000000000000000000000000000000000000000000000000000815260040161035b90610c02565b60405180910390fd5b6005600081548092919061037790610c51565b919050555060003373ffffffffffffffffffffffffffffffffffffffff16655af3107a40006040516103a890610cca565b60006040518083038185875af1925050503d80600081146103e5576040519150601f19603f3d011682016040523d82523d6000602084013e6103ea565b606091505b505090508061042e576040517f08c379a000000000000000000000000000000000000000000000000000000000815260040161042590610d2b565b60405180910390fd5b81600360003373ffffffffffffffffffffffffffffffffffffffff1673ffffffffffffffffffffffffffffffffffffffff168152602001908152602001600020600082825461047d9190610d4b565b9250508190555081600460008282546104969190610d4b565b925050819055503373ffffffffffffffffffffffffffffffffffffffff167f7fcf532c15f0a6db0bd6d0e038bea71d30d808c7d98cb3bf7268a95bf5081b65836040516104e391906108c8565b60405180910390a2600360055410610561576001600260006101000a81548160ff0219169083151502179055503373ffffffffffffffffffffffffffffffffffffffff167ff25030dea1ced040053b39f74d7a42dd30b2ff8a6c4206fa98f9fceb666cab0860045460405161055891906108c8565b60405180910390a25b5050565b6000600360008373ffffffffffffffffffffffffffffffffffffffff1673ffffffffffffffffffffffffffffffffffffffff168152602001908152602001600020549050919050565b60008054906101000a900473ffffffffffffffffffffffffffffffffffffffff1681565b600260009054906101000a900460ff1681565b60045481565b600080341161060257670de0b6b3a7640000610604565b345b905080600360003373ffffffffffffffffffffffffffffffffffffffff1673ffffffffffffffffffffffffffffffffffffffff16815260200190815260200160002060008282546106559190610d7f565b92505081905550806004600082825461066e9190610d7f565b925050819055503373ffffffffffffffffffffffffffffffffffffffff167fe1fffcc4923d04b559f4d29a8bfc6cda04eb5b0d3c460751c2402c5c5cc9109c826040516106bb91906108c8565b60405180910390a250565b60008054906101000a900473ffffffffffffffffffffffffffffffffffffffff1673ffffffffffffffffffffffffffffffffffffffff163373ffffffffffffffffffffffffffffffffffffffff1614610754576040517f08c379a000000000000000000000000000000000000000000000000000000000815260040161074b90610dff565b60405180910390fd5b6000600260006101000a81548160ff021916908315150217905550600060058190555068056bc75e2d631000006004819055506000600360003373ffffffffffffffffffffffffffffffffffffffff1673ffffffffffffffffffffffffffffffffffffffff16815260200190815260200160002081905550565b6060600260009054906101000a900460ff1661081f576040517f08c379a000000000000000000000000000000000000000000000000000000000815260040161081690610e6b565b60405180910390fd5b6001805461082c90610eba565b80601f016020809104026020016040519081016040528092919081815260200182805461085890610eba565b80156108a55780601f1061087a576101008083540402835291602001916108a5565b820191906000526020600020905b81548152906001019060200180831161088857829003601f168201915b5050505050905090565b6000819050919050565b6108c2816108af565b82525050565b60006020820190506108dd60008301846108b9565b92915050565b600080fd5b600073ffffffffffffffffffffffffffffffffffffffff82169050919050565b6000610913826108e8565b9050919050565b61092381610908565b811461092e57600080fd5b50565b6000813590506109408161091a565b92915050565b60006020828403121561095c5761095b6108e3565b5b600061096a84828501610931565b91505092915050565b61097c816108af565b811461098757600080fd5b50565b60008135905061099981610973565b92915050565b6000602082840312156109b5576109b46108e3565b5b60006109c38482850161098a565b91505092915050565b6109d581610908565b82525050565b60006020820190506109f060008301846109cc565b92915050565b60008115159050919050565b610a0b816109f6565b82525050565b6000602082019050610a266000830184610a02565b92915050565b600081519050919050565b600082825260208201905092915050565b60005b83811015610a66578082015181840152602081019050610a4b565b60008484015250505050565b6000601f19601f8301169050919050565b6000610a8e82610a2c565b610a988185610a37565b9350610aa8818560208601610a48565b610ab181610a72565b840191505092915050565b60006020820190508181036000830152610ad68184610a83565b905092915050565b7f496e73756666696369656e742062616c616e6365000000000000000000000000600082015250565b6000610b14601483610a37565b9150610b1f82610ade565b602082019050919050565b60006020820190508181036000830152610b4381610b07565b9050919050565b7f416d6f756e74206d7573742062652067726561746572207468616e2030000000600082015250565b6000610b80601d83610a37565b9150610b8b82610b4a565b602082019050919050565b60006020820190508181036000830152610baf81610b73565b9050919050565b7f5661756c742068617320696e73756666696369656e742066756e647300000000600082015250565b6000610bec601c83610a37565b9150610bf782610bb6565b602082019050919050565b60006020820190508181036000830152610c1b81610bdf565b9050919050565b7f4e487b7100000000000000000000000000000000000000000000000000000000600052601160045260246000fd5b6000610c5c826108af565b91507fffffffffffffffffffffffffffffffffffffffffffffffffffffffffffffffff8203610c8e57610c8d610c22565b5b600182019050919050565b600081905092915050565b50565b6000610cb4600083610c99565b9150610cbf82610ca4565b600082019050919050565b6000610cd582610ca7565b9150819050919050565b7f45787465726e616c2063616c6c206661696c6564000000000000000000000000600082015250565b6000610d15601483610a37565b9150610d2082610cdf565b602082019050919050565b60006020820190508181036000830152610d4481610d08565b9050919050565b6000610d56826108af565b9150610d61836108af565b9250828203905081811115610d7957610d78610c22565b5b92915050565b6000610d8a826108af565b9150610d95836108af565b9250828201905080821115610dad57610dac610c22565b5b92915050565b7f4e6f7420746865206f776e657200000000000000000000000000000000000000600082015250565b6000610de9600d83610a37565b9150610df482610db3565b602082019050919050565b60006020820190508181036000830152610e1881610ddc565b9050919050565b7f4e6f20666c616720666f7220796f750000000000000000000000000000000000600082015250565b6000610e55600f83610a37565b9150610e6082610e1f565b602082019050919050565b60006020820190508181036000830152610e8481610e48565b9050919050565b7f4e487b7100000000000000000000000000000000000000000000000000000000600052602260045260246000fd5b60006002820490506001821680610ed257607f821691505b602082108103610ee557610ee4610e8b565b5b5091905056fea264697066735822122039c9fb17dbcfe5e3d4ae69fcfdbff725b0151ad48d121d2b04d0d742529e619064736f6c634300081400334352495349537b626c30636b2d636834696e5f31735f6e30745f6330306c5f6275745f643361646c797d","opcodes":"PUSH1 0x80 PUSH1 0x40 MSTORE CALLVALUE DUP1 ISZERO PUSH3 0x11 JUMPI PUSH1 0x0 DUP1 REVERT JUMPDEST POP CALLER PUSH1 0x0 DUP1 PUSH2 0x100 EXP DUP2 SLOAD DUP2 PUSH20 0xFFFFFFFFFFFFFFFFFFFFFFFFFFFFFFFFFFFFFFFF MUL NOT AND SWAP1 DUP4 PUSH20 0xFFFFFFFFFFFFFFFFFFFFFFFFFFFFFFFFFFFFFFFF AND MUL OR SWAP1 SSTORE POP PUSH9 0x56BC75E2D63100000 PUSH1 0x4 DUP2 SWAP1 SSTORE POP PUSH1 0x40 MLOAD DUP1 PUSH1 0x60 ADD PUSH1 0x40 MSTORE DUP1 PUSH1 0x2A DUP2 MSTORE PUSH1 0x20 ADD PUSH3 0x1325 PUSH1 0x2A SWAP2 CODECOPY PUSH1 0x1 SWAP1 DUP2 PUSH3 0x8C SWAP2 SWAP1 PUSH3 0x30D JUMP JUMPDEST POP PUSH3 0x3F4 JUMP JUMPDEST PUSH1 0x0 DUP2 MLOAD SWAP1 POP SWAP2 SWAP1 POP JUMP JUMPDEST PUSH32 0x4E487B7100000000000000000000000000000000000000000000000000000000 PUSH1 0x0 MSTORE PUSH1 0x41 PUSH1 0x4 MSTORE PUSH1 0x24 PUSH1 0x0 REVERT JUMPDEST PUSH32 0x4E487B7100000000000000000000000000000000000000000000000000000000 PUSH1 0x0 MSTORE PUSH1 0x22 PUSH1 0x4 MSTORE PUSH1 0x24 PUSH1 0x0 REVERT JUMPDEST PUSH1 0x0 PUSH1 0x2 DUP3 DIV SWAP1 POP PUSH1 0x1 DUP3 AND DUP1 PUSH3 0x115 JUMPI PUSH1 0x7F DUP3 AND SWAP2 POP JUMPDEST PUSH1 0x20 DUP3 LT DUP2 SUB PUSH3 0x12B JUMPI PUSH3 0x12A PUSH3 0xCD JUMP JUMPDEST JUMPDEST POP SWAP2 SWAP1 POP JUMP JUMPDEST PUSH1 0x0 DUP2 SWAP1 POP DUP2 PUSH1 0x0 MSTORE PUSH1 0x20 PUSH1 0x0 KECCAK256 SWAP1 POP SWAP2 SWAP1 POP JUMP JUMPDEST PUSH1 0x0 PUSH1 0x20 PUSH1 0x1F DUP4 ADD DIV SWAP1 POP SWAP2 SWAP1 POP JUMP JUMPDEST PUSH1 0x0 DUP3 DUP3 SHL SWAP1 POP SWAP3 SWAP2 POP POP JUMP JUMPDEST PUSH1 0x0 PUSH1 0x8 DUP4 MUL PUSH3 0x195 PUSH32 0xFFFFFFFFFFFFFFFFFFFFFFFFFFFFFFFFFFFFFFFFFFFFFFFFFFFFFFFFFFFFFFFF DUP3 PUSH3 0x156 JUMP JUMPDEST PUSH3 0x1A1 DUP7 DUP4 PUSH3 0x156 JUMP JUMPDEST SWAP6 POP DUP1 NOT DUP5 AND SWAP4 POP DUP1 DUP7 AND DUP5 OR SWAP3 POP POP POP SWAP4 SWAP3 POP POP POP JUMP JUMPDEST PUSH1 0x0 DUP2 SWAP1 POP SWAP2 SWAP1 POP JUMP JUMPDEST PUSH1 0x0 DUP2 SWAP1 POP SWAP2 SWAP1 POP JUMP JUMPDEST PUSH1 0x0 PUSH3 0x1EE PUSH3 0x1E8 PUSH3 0x1E2 DUP5 PUSH3 0x1B9 JUMP JUMPDEST PUSH3 0x1C3 JUMP JUMPDEST PUSH3 0x1B9 JUMP JUMPDEST SWAP1 POP SWAP2 SWAP1 POP JUMP JUMPDEST PUSH1 0x0 DUP2 SWAP1 POP SWAP2 SWAP1 POP JUMP JUMPDEST PUSH3 0x20A DUP4 PUSH3 0x1CD JUMP JUMPDEST PUSH3 0x222 PUSH3 0x219 DUP3 PUSH3 0x1F5 JUMP JUMPDEST DUP5 DUP5 SLOAD PUSH3 0x163 JUMP JUMPDEST DUP3 SSTORE POP POP POP POP JUMP JUMPDEST PUSH1 0x0 SWAP1 JUMP JUMPDEST PUSH3 0x239 PUSH3 0x22A JUMP JUMPDEST PUSH3 0x246 DUP2 DUP5 DUP5 PUSH3 0x1FF JUMP JUMPDEST POP POP POP JUMP JUMPDEST JUMPDEST DUP2 DUP2 LT ISZERO PUSH3 0x26E JUMPI PUSH3 0x262 PUSH1 0x0 DUP3 PUSH3 0x22F JUMP JUMPDEST PUSH1 0x1 DUP2 ADD SWAP1 POP PUSH3 0x24C JUMP JUMPDEST POP POP JUMP JUMPDEST PUSH1 0x1F DUP3 GT ISZERO PUSH3 0x2BD JUMPI PUSH3 0x287 DUP2 PUSH3 0x131 JUMP JUMPDEST PUSH3 0x292 DUP5 PUSH3 0x146 JUMP JUMPDEST DUP2 ADD PUSH1 0x20 DUP6 LT ISZERO PUSH3 0x2A2 JUMPI DUP2 SWAP1 POP JUMPDEST PUSH3 0x2BA PUSH3 0x2B1 DUP6 PUSH3 0x146 JUMP JUMPDEST DUP4 ADD DUP3 PUSH3 0x24B JUMP JUMPDEST POP POP JUMPDEST POP POP POP JUMP JUMPDEST PUSH1 0x0 DUP3 DUP3 SHR SWAP1 POP SWAP3 SWAP2 POP POP JUMP JUMPDEST PUSH1 0x0 PUSH3 0x2E2 PUSH1 0x0 NOT DUP5 PUSH1 0x8 MUL PUSH3 0x2C2 JUMP JUMPDEST NOT DUP1 DUP4 AND SWAP2 POP POP SWAP3 SWAP2 POP POP JUMP JUMPDEST PUSH1 0x0 PUSH3 0x2FD DUP4 DUP4 PUSH3 0x2CF JUMP JUMPDEST SWAP2 POP DUP3 PUSH1 0x2 MUL DUP3 OR SWAP1 POP SWAP3 SWAP2 POP POP JUMP JUMPDEST PUSH3 0x318 DUP3 PUSH3 0x93 JUMP JUMPDEST PUSH8 0xFFFFFFFFFFFFFFFF DUP2 GT ISZERO PUSH3 0x334 JUMPI PUSH3 0x333 PUSH3 0x9E JUMP JUMPDEST JUMPDEST PUSH3 0x340 DUP3 SLOAD PUSH3 0xFC JUMP JUMPDEST PUSH3 0x34D DUP3 DUP3 DUP6 PUSH3 0x272 JUMP JUMPDEST PUSH1 0x0 PUSH1 0x20 SWAP1 POP PUSH1 0x1F DUP4 GT PUSH1 0x1 DUP2 EQ PUSH3 0x385 JUMPI PUSH1 0x0 DUP5 ISZERO PUSH3 0x370 JUMPI DUP3 DUP8 ADD MLOAD SWAP1 POP JUMPDEST PUSH3 0x37C DUP6 DUP3 PUSH3 0x2EF JUMP JUMPDEST DUP7 SSTORE POP PUSH3 0x3EC JUMP JUMPDEST PUSH1 0x1F NOT DUP5 AND PUSH3 0x395 DUP7 PUSH3 0x131 JUMP JUMPDEST PUSH1 0x0 JUMPDEST DUP3 DUP2 LT ISZERO PUSH3 0x3BF JUMPI DUP5 DUP10 ADD MLOAD DUP3 SSTORE PUSH1 0x1 DUP3 ADD SWAP2 POP PUSH1 0x20 DUP6 ADD SWAP5 POP PUSH1 0x20 DUP2 ADD SWAP1 POP PUSH3 0x398 JUMP JUMPDEST DUP7 DUP4 LT ISZERO PUSH3 0x3DF JUMPI DUP5 DUP10 ADD MLOAD PUSH3 0x3DB PUSH1 0x1F DUP10 AND DUP3 PUSH3 0x2CF JUMP JUMPDEST DUP4 SSTORE POP JUMPDEST PUSH1 0x1 PUSH1 0x2 DUP9 MUL ADD DUP9 SSTORE POP POP POP JUMPDEST POP POP POP POP POP POP JUMP JUMPDEST PUSH2 0xF21 DUP1 PUSH3 0x404 PUSH1 0x0 CODECOPY PUSH1 0x0 RETURN INVALID PUSH1 0x80 PUSH1 0x40 MSTORE PUSH1 0x4 CALLDATASIZE LT PUSH2 0x95 JUMPI PUSH1 0x0 CALLDATALOAD PUSH1 0xE0 SHR DUP1 PUSH4 0xB6824603 GT PUSH2 0x59 JUMPI DUP1 PUSH4 0xB6824603 EQ PUSH2 0x19A JUMPI DUP1 PUSH4 0xCC5D195E EQ PUSH2 0x1C5 JUMPI DUP1 PUSH4 0xD0E30DB0 EQ PUSH2 0x1F0 JUMPI DUP1 PUSH4 0xD826F88F EQ PUSH2 0x1FA JUMPI DUP1 PUSH4 0xF9633930 EQ PUSH2 0x211 JUMPI PUSH2 0x9C JUMP JUMPDEST DUP1 PUSH4 0x20D786B5 EQ PUSH2 0xA1 JUMPI DUP1 PUSH4 0x26224C64 EQ PUSH2 0xCC JUMPI DUP1 PUSH4 0x2E1A7D4D EQ PUSH2 0x109 JUMPI DUP1 PUSH4 0x70A08231 EQ PUSH2 0x132 JUMPI DUP1 PUSH4 0x8DA5CB5B EQ PUSH2 0x16F JUMPI PUSH2 0x9C JUMP JUMPDEST CALLDATASIZE PUSH2 0x9C JUMPI STOP JUMPDEST PUSH1 0x0 DUP1 REVERT JUMPDEST CALLVALUE DUP1 ISZERO PUSH2 0xAD JUMPI PUSH1 0x0 DUP1 REVERT JUMPDEST POP PUSH2 0xB6 PUSH2 0x23C JUMP JUMPDEST PUSH1 0x40 MLOAD PUSH2 0xC3 SWAP2 SWAP1 PUSH2 0x8C8 JUMP JUMPDEST PUSH1 0x40 MLOAD DUP1 SWAP2 SUB SWAP1 RETURN JUMPDEST CALLVALUE DUP1 ISZERO PUSH2 0xD8 JUMPI PUSH1 0x0 DUP1 REVERT JUMPDEST POP PUSH2 0xF3 PUSH1 0x4 DUP1 CALLDATASIZE SUB DUP2 ADD SWAP1 PUSH2 0xEE SWAP2 SWAP1 PUSH2 0x946 JUMP JUMPDEST PUSH2 0x242 JUMP JUMPDEST PUSH1 0x40 MLOAD PUSH2 0x100 SWAP2 SWAP1 PUSH2 0x8C8 JUMP JUMPDEST PUSH1 0x40 MLOAD DUP1 SWAP2 SUB SWAP1 RETURN JUMPDEST CALLVALUE DUP1 ISZERO PUSH2 0x115 JUMPI PUSH1 0x0 DUP1 REVERT JUMPDEST POP PUSH2 0x130 PUSH1 0x4 DUP1 CALLDATASIZE SUB DUP2 ADD SWAP1 PUSH2 0x12B SWAP2 SWAP1 PUSH2 0x99F JUMP JUMPDEST PUSH2 0x25A JUMP JUMPDEST STOP JUMPDEST CALLVALUE DUP1 ISZERO PUSH2 0x13E JUMPI PUSH1 0x0 DUP1 REVERT JUMPDEST POP PUSH2 0x159 PUSH1 0x4 DUP1 CALLDATASIZE SUB DUP2 ADD SWAP1 PUSH2 0x154 SWAP2 SWAP1 PUSH2 0x946 JUMP JUMPDEST PUSH2 0x565 JUMP JUMPDEST PUSH1 0x40 MLOAD PUSH2 0x166 SWAP2 SWAP1 PUSH2 0x8C8 JUMP JUMPDEST PUSH1 0x40 MLOAD DUP1 SWAP2 SUB SWAP1 RETURN JUMPDEST CALLVALUE DUP1 ISZERO PUSH2 0x17B JUMPI PUSH1 0x0 DUP1 REVERT JUMPDEST POP PUSH2 0x184 PUSH2 0x5AE JUMP JUMPDEST PUSH1 0x40 MLOAD PUSH2 0x191 SWAP2 SWAP1 PUSH2 0x9DB JUMP JUMPDEST PUSH1 0x40 MLOAD DUP1 SWAP2 SUB SWAP1 RETURN JUMPDEST CALLVALUE DUP1 ISZERO PUSH2 0x1A6 JUMPI PUSH1 0x0 DUP1 REVERT JUMPDEST POP PUSH2 0x1AF PUSH2 0x5D2 JUMP JUMPDEST PUSH1 0x40 MLOAD PUSH2 0x1BC SWAP2 SWAP1 PUSH2 0xA11 JUMP JUMPDEST PUSH1 0x40 MLOAD DUP1 SWAP2 SUB SWAP1 RETURN JUMPDEST CALLVALUE DUP1 ISZERO PUSH2 0x1D1 JUMPI PUSH1 0x0 DUP1 REVERT JUMPDEST POP PUSH2 0x1DA PUSH2 0x5E5 JUMP JUMPDEST PUSH1 0x40 MLOAD PUSH2 0x1E7 SWAP2 SWAP1 PUSH2 0x8C8 JUMP JUMPDEST PUSH1 0x40 MLOAD DUP1 SWAP2 SUB SWAP1 RETURN JUMPDEST PUSH2 0x1F8 PUSH2 0x5EB JUMP JUMPDEST STOP JUMPDEST CALLVALUE DUP1 ISZERO PUSH2 0x206 JUMPI PUSH1 0x0 DUP1 REVERT JUMPDEST POP PUSH2 0x20F PUSH2 0x6C6 JUMP JUMPDEST STOP JUMPDEST CALLVALUE DUP1 ISZERO PUSH2 0x21D JUMPI PUSH1 0x0 DUP1 REVERT JUMPDEST POP PUSH2 0x226 PUSH2 0x7CE JUMP JUMPDEST PUSH1 0x40 MLOAD PUSH2 0x233 SWAP2 SWAP1 PUSH2 0xABC JUMP JUMPDEST PUSH1 0x40 MLOAD DUP1 SWAP2 SUB SWAP1 RETURN JUMPDEST PUSH1 0x5 SLOAD DUP2 JUMP JUMPDEST PUSH1 0x3 PUSH1 0x20 MSTORE DUP1 PUSH1 0x0 MSTORE PUSH1 0x40 PUSH1 0x0 KECCAK256 PUSH1 0x0 SWAP2 POP SWAP1 POP SLOAD DUP2 JUMP JUMPDEST DUP1 PUSH1 0x3 PUSH1 0x0 CALLER PUSH20 0xFFFFFFFFFFFFFFFFFFFFFFFFFFFFFFFFFFFFFFFF AND PUSH20 0xFFFFFFFFFFFFFFFFFFFFFFFFFFFFFFFFFFFFFFFF AND DUP2 MSTORE PUSH1 0x20 ADD SWAP1 DUP2 MSTORE PUSH1 0x20 ADD PUSH1 0x0 KECCAK256 SLOAD LT ISZERO PUSH2 0x2DC JUMPI PUSH1 0x40 MLOAD PUSH32 0x8C379A000000000000000000000000000000000000000000000000000000000 DUP2 MSTORE PUSH1 0x4 ADD PUSH2 0x2D3 SWAP1 PUSH2 0xB2A JUMP JUMPDEST PUSH1 0x40 MLOAD DUP1 SWAP2 SUB SWAP1 REVERT JUMPDEST PUSH1 0x0 DUP2 GT PUSH2 0x31F JUMPI PUSH1 0x40 MLOAD PUSH32 0x8C379A000000000000000000000000000000000000000000000000000000000 DUP2 MSTORE PUSH1 0x4 ADD PUSH2 0x316 SWAP1 PUSH2 0xB96 JUMP JUMPDEST PUSH1 0x40 MLOAD DUP1 SWAP2 SUB SWAP1 REVERT JUMPDEST DUP1 PUSH1 0x4 SLOAD LT ISZERO PUSH2 0x364 JUMPI PUSH1 0x40 MLOAD PUSH32 0x8C379A000000000000000000000000000000000000000000000000000000000 DUP2 MSTORE PUSH1 0x4 ADD PUSH2 0x35B SWAP1 PUSH2 0xC02 JUMP JUMPDEST PUSH1 0x40 MLOAD DUP1 SWAP2 SUB SWAP1 REVERT JUMPDEST PUSH1 0x5 PUSH1 0x0 DUP2 SLOAD DUP1 SWAP3 SWAP2 SWAP1 PUSH2 0x377 SWAP1 PUSH2 0xC51 JUMP JUMPDEST SWAP2 SWAP1 POP SSTORE POP PUSH1 0x0 CALLER PUSH20 0xFFFFFFFFFFFFFFFFFFFFFFFFFFFFFFFFFFFFFFFF AND PUSH6 0x5AF3107A4000 PUSH1 0x40 MLOAD PUSH2 0x3A8 SWAP1 PUSH2 0xCCA JUMP JUMPDEST PUSH1 0x0 PUSH1 0x40 MLOAD DUP1 DUP4 SUB DUP2 DUP6 DUP8 GAS CALL SWAP3 POP POP POP RETURNDATASIZE DUP1 PUSH1 0x0 DUP2 EQ PUSH2 0x3E5 JUMPI PUSH1 0x40 MLOAD SWAP2 POP PUSH1 0x1F NOT PUSH1 0x3F RETURNDATASIZE ADD AND DUP3 ADD PUSH1 0x40 MSTORE RETURNDATASIZE DUP3 MSTORE RETURNDATASIZE PUSH1 0x0 PUSH1 0x20 DUP5 ADD RETURNDATACOPY PUSH2 0x3EA JUMP JUMPDEST PUSH1 0x60 SWAP2 POP JUMPDEST POP POP SWAP1 POP DUP1 PUSH2 0x42E JUMPI PUSH1 0x40 MLOAD PUSH32 0x8C379A000000000000000000000000000000000000000000000000000000000 DUP2 MSTORE PUSH1 0x4 ADD PUSH2 0x425 SWAP1 PUSH2 0xD2B JUMP JUMPDEST PUSH1 0x40 MLOAD DUP1 SWAP2 SUB SWAP1 REVERT JUMPDEST DUP2 PUSH1 0x3 PUSH1 0x0 CALLER PUSH20 0xFFFFFFFFFFFFFFFFFFFFFFFFFFFFFFFFFFFFFFFF AND PUSH20 0xFFFFFFFFFFFFFFFFFFFFFFFFFFFFFFFFFFFFFFFF AND DUP2 MSTORE PUSH1 0x20 ADD SWAP1 DUP2 MSTORE PUSH1 0x20 ADD PUSH1 0x0 KECCAK256 PUSH1 0x0 DUP3 DUP3 SLOAD PUSH2 0x47D SWAP2 SWAP1 PUSH2 0xD4B JUMP JUMPDEST SWAP3 POP POP DUP2 SWAP1 SSTORE POP DUP2 PUSH1 0x4 PUSH1 0x0 DUP3 DUP3 SLOAD PUSH2 0x496 SWAP2 SWAP1 PUSH2 0xD4B JUMP JUMPDEST SWAP3 POP POP DUP2 SWAP1 SSTORE POP CALLER PUSH20 0xFFFFFFFFFFFFFFFFFFFFFFFFFFFFFFFFFFFFFFFF AND PUSH32 0x7FCF532C15F0A6DB0BD6D0E038BEA71D30D808C7D98CB3BF7268A95BF5081B65 DUP4 PUSH1 0x40 MLOAD PUSH2 0x4E3 SWAP2 SWAP1 PUSH2 0x8C8 JUMP JUMPDEST PUSH1 0x40 MLOAD DUP1 SWAP2 SUB SWAP1 LOG2 PUSH1 0x3 PUSH1 0x5 SLOAD LT PUSH2 0x561 JUMPI PUSH1 0x1 PUSH1 0x2 PUSH1 0x0 PUSH2 0x100 EXP DUP2 SLOAD DUP2 PUSH1 0xFF MUL NOT AND SWAP1 DUP4 ISZERO ISZERO MUL OR SWAP1 SSTORE POP CALLER PUSH20 0xFFFFFFFFFFFFFFFFFFFFFFFFFFFFFFFFFFFFFFFF AND PUSH32 0xF25030DEA1CED040053B39F74D7A42DD30B2FF8A6C4206FA98F9FCEB666CAB08 PUSH1 0x4 SLOAD PUSH1 0x40 MLOAD PUSH2 0x558 SWAP2 SWAP1 PUSH2 0x8C8 JUMP JUMPDEST PUSH1 0x40 MLOAD DUP1 SWAP2 SUB SWAP1 LOG2 JUMPDEST POP POP JUMP JUMPDEST PUSH1 0x0 PUSH1 0x3 PUSH1 0x0 DUP4 PUSH20 0xFFFFFFFFFFFFFFFFFFFFFFFFFFFFFFFFFFFFFFFF AND PUSH20 0xFFFFFFFFFFFFFFFFFFFFFFFFFFFFFFFFFFFFFFFF AND DUP2 MSTORE PUSH1 0x20 ADD SWAP1 DUP2 MSTORE PUSH1 0x20 ADD PUSH1 0x0 KECCAK256 SLOAD SWAP1 POP SWAP2 SWAP1 POP JUMP JUMPDEST PUSH1 0x0 DUP1 SLOAD SWAP1 PUSH2 0x100 EXP SWAP1 DIV PUSH20 0xFFFFFFFFFFFFFFFFFFFFFFFFFFFFFFFFFFFFFFFF AND DUP2 JUMP JUMPDEST PUSH1 0x2 PUSH1 0x0 SWAP1 SLOAD SWAP1 PUSH2 0x100 EXP SWAP1 DIV PUSH1 0xFF AND DUP2 JUMP JUMPDEST PUSH1 0x4 SLOAD DUP2 JUMP JUMPDEST PUSH1 0x0 DUP1 CALLVALUE GT PUSH2 0x602 JUMPI PUSH8 0xDE0B6B3A7640000 PUSH2 0x604 JUMP JUMPDEST CALLVALUE JUMPDEST SWAP1 POP DUP1 PUSH1 0x3 PUSH1 0x0 CALLER PUSH20 0xFFFFFFFFFFFFFFFFFFFFFFFFFFFFFFFFFFFFFFFF AND PUSH20 0xFFFFFFFFFFFFFFFFFFFFFFFFFFFFFFFFFFFFFFFF AND DUP2 MSTORE PUSH1 0x20 ADD SWAP1 DUP2 MSTORE PUSH1 0x20 ADD PUSH1 0x0 KECCAK256 PUSH1 0x0 DUP3 DUP3 SLOAD PUSH2 0x655 SWAP2 SWAP1 PUSH2 0xD7F JUMP JUMPDEST SWAP3 POP POP DUP2 SWAP1 SSTORE POP DUP1 PUSH1 0x4 PUSH1 0x0 DUP3 DUP3 SLOAD PUSH2 0x66E SWAP2 SWAP1 PUSH2 0xD7F JUMP JUMPDEST SWAP3 POP POP DUP2 SWAP1 SSTORE POP CALLER PUSH20 0xFFFFFFFFFFFFFFFFFFFFFFFFFFFFFFFFFFFFFFFF AND PUSH32 0xE1FFFCC4923D04B559F4D29A8BFC6CDA04EB5B0D3C460751C2402C5C5CC9109C DUP3 PUSH1 0x40 MLOAD PUSH2 0x6BB SWAP2 SWAP1 PUSH2 0x8C8 JUMP JUMPDEST PUSH1 0x40 MLOAD DUP1 SWAP2 SUB SWAP1 LOG2 POP JUMP JUMPDEST PUSH1 0x0 DUP1 SLOAD SWAP1 PUSH2 0x100 EXP SWAP1 DIV PUSH20 0xFFFFFFFFFFFFFFFFFFFFFFFFFFFFFFFFFFFFFFFF AND PUSH20 0xFFFFFFFFFFFFFFFFFFFFFFFFFFFFFFFFFFFFFFFF AND CALLER PUSH20 0xFFFFFFFFFFFFFFFFFFFFFFFFFFFFFFFFFFFFFFFF AND EQ PUSH2 0x754 JUMPI PUSH1 0x40 MLOAD PUSH32 0x8C379A000000000000000000000000000000000000000000000000000000000 DUP2 MSTORE PUSH1 0x4 ADD PUSH2 0x74B SWAP1 PUSH2 0xDFF JUMP JUMPDEST PUSH1 0x40 MLOAD DUP1 SWAP2 SUB SWAP1 REVERT JUMPDEST PUSH1 0x0 PUSH1 0x2 PUSH1 0x0 PUSH2 0x100 EXP DUP2 SLOAD DUP2 PUSH1 0xFF MUL NOT AND SWAP1 DUP4 ISZERO ISZERO MUL OR SWAP1 SSTORE POP PUSH1 0x0 PUSH1 0x5 DUP2 SWAP1 SSTORE POP PUSH9 0x56BC75E2D63100000 PUSH1 0x4 DUP2 SWAP1 SSTORE POP PUSH1 0x0 PUSH1 0x3 PUSH1 0x0 CALLER PUSH20 0xFFFFFFFFFFFFFFFFFFFFFFFFFFFFFFFFFFFFFFFF AND PUSH20 0xFFFFFFFFFFFFFFFFFFFFFFFFFFFFFFFFFFFFFFFF AND DUP2 MSTORE PUSH1 0x20 ADD SWAP1 DUP2 MSTORE PUSH1 0x20 ADD PUSH1 0x0 KECCAK256 DUP2 SWAP1 SSTORE POP JUMP JUMPDEST PUSH1 0x60 PUSH1 0x2 PUSH1 0x0 SWAP1 SLOAD SWAP1 PUSH2 0x100 EXP SWAP1 DIV PUSH1 0xFF AND PUSH2 0x81F JUMPI PUSH1 0x40 MLOAD PUSH32 0x8C379A000000000000000000000000000000000000000000000000000000000 DUP2 MSTORE PUSH1 0x4 ADD PUSH2 0x816 SWAP1 PUSH2 0xE6B JUMP JUMPDEST PUSH1 0x40 MLOAD DUP1 SWAP2 SUB SWAP1 REVERT JUMPDEST PUSH1 0x1 DUP1 SLOAD PUSH2 0x82C SWAP1 PUSH2 0xEBA JUMP JUMPDEST DUP1 PUSH1 0x1F ADD PUSH1 0x20 DUP1 SWAP2 DIV MUL PUSH1 0x20 ADD PUSH1 0x40 MLOAD SWAP1 DUP2 ADD PUSH1 0x40 MSTORE DUP1 SWAP3 SWAP2 SWAP1 DUP2 DUP2 MSTORE PUSH1 0x20 ADD DUP3 DUP1 SLOAD PUSH2 0x858 SWAP1 PUSH2 0xEBA JUMP JUMPDEST DUP1 ISZERO PUSH2 0x8A5 JUMPI DUP1 PUSH1 0x1F LT PUSH2 0x87A JUMPI PUSH2 0x100 DUP1 DUP4 SLOAD DIV MUL DUP4 MSTORE SWAP2 PUSH1 0x20 ADD SWAP2 PUSH2 0x8A5 JUMP JUMPDEST DUP3 ADD SWAP2 SWAP1 PUSH1 0x0 MSTORE PUSH1 0x20 PUSH1 0x0 KECCAK256 SWAP1 JUMPDEST DUP2 SLOAD DUP2 MSTORE SWAP1 PUSH1 0x1 ADD SWAP1 PUSH1 0x20 ADD DUP1 DUP4 GT PUSH2 0x888 JUMPI DUP3 SWAP1 SUB PUSH1 0x1F AND DUP3 ADD SWAP2 JUMPDEST POP POP POP POP POP SWAP1 POP SWAP1 JUMP JUMPDEST PUSH1 0x0 DUP2 SWAP1 POP SWAP2 SWAP1 POP JUMP JUMPDEST PUSH2 0x8C2 DUP2 PUSH2 0x8AF JUMP JUMPDEST DUP3 MSTORE POP POP JUMP JUMPDEST PUSH1 0x0 PUSH1 0x20 DUP3 ADD SWAP1 POP PUSH2 0x8DD PUSH1 0x0 DUP4 ADD DUP5 PUSH2 0x8B9 JUMP JUMPDEST SWAP3 SWAP2 POP POP JUMP JUMPDEST PUSH1 0x0 DUP1 REVERT JUMPDEST PUSH1 0x0 PUSH20 0xFFFFFFFFFFFFFFFFFFFFFFFFFFFFFFFFFFFFFFFF DUP3 AND SWAP1 POP SWAP2 SWAP1 POP JUMP JUMPDEST PUSH1 0x0 PUSH2 0x913 DUP3 PUSH2 0x8E8 JUMP JUMPDEST SWAP1 POP SWAP2 SWAP1 POP JUMP JUMPDEST PUSH2 0x923 DUP2 PUSH2 0x908 JUMP JUMPDEST DUP2 EQ PUSH2 0x92E JUMPI PUSH1 0x0 DUP1 REVERT JUMPDEST POP JUMP JUMPDEST PUSH1 0x0 DUP2 CALLDATALOAD SWAP1 POP PUSH2 0x940 DUP2 PUSH2 0x91A JUMP JUMPDEST SWAP3 SWAP2 POP POP JUMP JUMPDEST PUSH1 0x0 PUSH1 0x20 DUP3 DUP5 SUB SLT ISZERO PUSH2 0x95C JUMPI PUSH2 0x95B PUSH2 0x8E3 JUMP JUMPDEST JUMPDEST PUSH1 0x0 PUSH2 0x96A DUP5 DUP3 DUP6 ADD PUSH2 0x931 JUMP JUMPDEST SWAP2 POP POP SWAP3 SWAP2 POP POP JUMP JUMPDEST PUSH2 0x97C DUP2 PUSH2 0x8AF JUMP JUMPDEST DUP2 EQ PUSH2 0x987 JUMPI PUSH1 0x0 DUP1 REVERT JUMPDEST POP JUMP JUMPDEST PUSH1 0x0 DUP2 CALLDATALOAD SWAP1 POP PUSH2 0x999 DUP2 PUSH2 0x973 JUMP JUMPDEST SWAP3 SWAP2 POP POP JUMP JUMPDEST PUSH1 0x0 PUSH1 0x20 DUP3 DUP5 SUB SLT ISZERO PUSH2 0x9B5 JUMPI PUSH2 0x9B4 PUSH2 0x8E3 JUMP JUMPDEST JUMPDEST PUSH1 0x0 PUSH2 0x9C3 DUP5 DUP3 DUP6 ADD PUSH2 0x98A JUMP JUMPDEST SWAP2 POP POP SWAP3 SWAP2 POP POP JUMP JUMPDEST PUSH2 0x9D5 DUP2 PUSH2 0x908 JUMP JUMPDEST DUP3 MSTORE POP POP JUMP JUMPDEST PUSH1 0x0 PUSH1 0x20 DUP3 ADD SWAP1 POP PUSH2 0x9F0 PUSH1 0x0 DUP4 ADD DUP5 PUSH2 0x9CC JUMP JUMPDEST SWAP3 SWAP2 POP POP JUMP JUMPDEST PUSH1 0x0 DUP2 ISZERO ISZERO SWAP1 POP SWAP2 SWAP1 POP JUMP JUMPDEST PUSH2 0xA0B DUP2 PUSH2 0x9F6 JUMP JUMPDEST DUP3 MSTORE POP POP JUMP JUMPDEST PUSH1 0x0 PUSH1 0x20 DUP3 ADD SWAP1 POP PUSH2 0xA26 PUSH1 0x0 DUP4 ADD DUP5 PUSH2 0xA02 JUMP JUMPDEST SWAP3 SWAP2 POP POP JUMP JUMPDEST PUSH1 0x0 DUP2 MLOAD SWAP1 POP SWAP2 SWAP1 POP JUMP JUMPDEST PUSH1 0x0 DUP3 DUP3 MSTORE PUSH1 0x20 DUP3 ADD SWAP1 POP SWAP3 SWAP2 POP POP JUMP JUMPDEST PUSH1 0x0 JUMPDEST DUP4 DUP2 LT ISZERO PUSH2 0xA66 JUMPI DUP1 DUP3 ADD MLOAD DUP2 DUP5 ADD MSTORE PUSH1 0x20 DUP2 ADD SWAP1 POP PUSH2 0xA4B JUMP JUMPDEST PUSH1 0x0 DUP5 DUP5 ADD MSTORE POP POP POP POP JUMP JUMPDEST PUSH1 0x0 PUSH1 0x1F NOT PUSH1 0x1F DUP4 ADD AND SWAP1 POP SWAP2 SWAP1 POP JUMP JUMPDEST PUSH1 0x0 PUSH2 0xA8E DUP3 PUSH2 0xA2C JUMP JUMPDEST PUSH2 0xA98 DUP2 DUP6 PUSH2 0xA37 JUMP JUMPDEST SWAP4 POP PUSH2 0xAA8 DUP2 DUP6 PUSH1 0x20 DUP7 ADD PUSH2 0xA48 JUMP JUMPDEST PUSH2 0xAB1 DUP2 PUSH2 0xA72 JUMP JUMPDEST DUP5 ADD SWAP2 POP POP SWAP3 SWAP2 POP POP JUMP JUMPDEST PUSH1 0x0 PUSH1 0x20 DUP3 ADD SWAP1 POP DUP2 DUP2 SUB PUSH1 0x0 DUP4 ADD MSTORE PUSH2 0xAD6 DUP2 DUP5 PUSH2 0xA83 JUMP JUMPDEST SWAP1 POP SWAP3 SWAP2 POP POP JUMP JUMPDEST PUSH32 0x496E73756666696369656E742062616C616E6365000000000000000000000000 PUSH1 0x0 DUP3 ADD MSTORE POP JUMP JUMPDEST PUSH1 0x0 PUSH2 0xB14 PUSH1 0x14 DUP4 PUSH2 0xA37 JUMP JUMPDEST SWAP2 POP PUSH2 0xB1F DUP3 PUSH2 0xADE JUMP JUMPDEST PUSH1 0x20 DUP3 ADD SWAP1 POP SWAP2 SWAP1 POP JUMP JUMPDEST PUSH1 0x0 PUSH1 0x20 DUP3 ADD SWAP1 POP DUP2 DUP2 SUB PUSH1 0x0 DUP4 ADD MSTORE PUSH2 0xB43 DUP2 PUSH2 0xB07 JUMP JUMPDEST SWAP1 POP SWAP2 SWAP1 POP JUMP JUMPDEST PUSH32 0x416D6F756E74206D7573742062652067726561746572207468616E2030000000 PUSH1 0x0 DUP3 ADD MSTORE POP JUMP JUMPDEST PUSH1 0x0 PUSH2 0xB80 PUSH1 0x1D DUP4 PUSH2 0xA37 JUMP JUMPDEST SWAP2 POP PUSH2 0xB8B DUP3 PUSH2 0xB4A JUMP JUMPDEST PUSH1 0x20 DUP3 ADD SWAP1 POP SWAP2 SWAP1 POP JUMP JUMPDEST PUSH1 0x0 PUSH1 0x20 DUP3 ADD SWAP1 POP DUP2 DUP2 SUB PUSH1 0x0 DUP4 ADD MSTORE PUSH2 0xBAF DUP2 PUSH2 0xB73 JUMP JUMPDEST SWAP1 POP SWAP2 SWAP1 POP JUMP JUMPDEST PUSH32 0x5661756C742068617320696E73756666696369656E742066756E647300000000 PUSH1 0x0 DUP3 ADD MSTORE POP JUMP JUMPDEST PUSH1 0x0 PUSH2 0xBEC PUSH1 0x1C DUP4 PUSH2 0xA37 JUMP JUMPDEST SWAP2 POP PUSH2 0xBF7 DUP3 PUSH2 0xBB6 JUMP JUMPDEST PUSH1 0x20 DUP3 ADD SWAP1 POP SWAP2 SWAP1 POP JUMP JUMPDEST PUSH1 0x0 PUSH1 0x20 DUP3 ADD SWAP1 POP DUP2 DUP2 SUB PUSH1 0x0 DUP4 ADD MSTORE PUSH2 0xC1B DUP2 PUSH2 0xBDF JUMP JUMPDEST SWAP1 POP SWAP2 SWAP1 POP JUMP JUMPDEST PUSH32 0x4E487B7100000000000000000000000000000000000000000000000000000000 PUSH1 0x0 MSTORE PUSH1 0x11 PUSH1 0x4 MSTORE PUSH1 0x24 PUSH1 0x0 REVERT JUMPDEST PUSH1 0x0 PUSH2 0xC5C DUP3 PUSH2 0x8AF JUMP JUMPDEST SWAP2 POP PUSH32 0xFFFFFFFFFFFFFFFFFFFFFFFFFFFFFFFFFFFFFFFFFFFFFFFFFFFFFFFFFFFFFFFF DUP3 SUB PUSH2 0xC8E JUMPI PUSH2 0xC8D PUSH2 0xC22 JUMP JUMPDEST JUMPDEST PUSH1 0x1 DUP3 ADD SWAP1 POP SWAP2 SWAP1 POP JUMP JUMPDEST PUSH1 0x0 DUP2 SWAP1 POP SWAP3 SWAP2 POP POP JUMP JUMPDEST POP JUMP JUMPDEST PUSH1 0x0 PUSH2 0xCB4 PUSH1 0x0 DUP4 PUSH2 0xC99 JUMP JUMPDEST SWAP2 POP PUSH2 0xCBF DUP3 PUSH2 0xCA4 JUMP JUMPDEST PUSH1 0x0 DUP3 ADD SWAP1 POP SWAP2 SWAP1 POP JUMP JUMPDEST PUSH1 0x0 PUSH2 0xCD5 DUP3 PUSH2 0xCA7 JUMP JUMPDEST SWAP2 POP DUP2 SWAP1 POP SWAP2 SWAP1 POP JUMP JUMPDEST PUSH32 0x45787465726E616C2063616C6C206661696C6564000000000000000000000000 PUSH1 0x0 DUP3 ADD MSTORE POP JUMP JUMPDEST PUSH1 0x0 PUSH2 0xD15 PUSH1 0x14 DUP4 PUSH2 0xA37 JUMP JUMPDEST SWAP2 POP PUSH2 0xD20 DUP3 PUSH2 0xCDF JUMP JUMPDEST PUSH1 0x20 DUP3 ADD SWAP1 POP SWAP2 SWAP1 POP JUMP JUMPDEST PUSH1 0x0 PUSH1 0x20 DUP3 ADD SWAP1 POP DUP2 DUP2 SUB PUSH1 0x0 DUP4 ADD MSTORE PUSH2 0xD44 DUP2 PUSH2 0xD08 JUMP JUMPDEST SWAP1 POP SWAP2 SWAP1 POP JUMP JUMPDEST PUSH1 0x0 PUSH2 0xD56 DUP3 PUSH2 0x8AF JUMP JUMPDEST SWAP2 POP PUSH2 0xD61 DUP4 PUSH2 0x8AF JUMP JUMPDEST SWAP3 POP DUP3 DUP3 SUB SWAP1 POP DUP2 DUP2 GT ISZERO PUSH2 0xD79 JUMPI PUSH2 0xD78 PUSH2 0xC22 JUMP JUMPDEST JUMPDEST SWAP3 SWAP2 POP POP JUMP JUMPDEST PUSH1 0x0 PUSH2 0xD8A DUP3 PUSH2 0x8AF JUMP JUMPDEST SWAP2 POP PUSH2 0xD95 DUP4 PUSH2 0x8AF JUMP JUMPDEST SWAP3 POP DUP3 DUP3 ADD SWAP1 POP DUP1 DUP3 GT ISZERO PUSH2 0xDAD JUMPI PUSH2 0xDAC PUSH2 0xC22 JUMP JUMPDEST JUMPDEST SWAP3 SWAP2 POP POP JUMP JUMPDEST PUSH32 0x4E6F7420746865206F776E657200000000000000000000000000000000000000 PUSH1 0x0 DUP3 ADD MSTORE POP JUMP JUMPDEST PUSH1 0x0 PUSH2 0xDE9 PUSH1 0xD DUP4 PUSH2 0xA37 JUMP JUMPDEST SWAP2 POP PUSH2 0xDF4 DUP3 PUSH2 0xDB3 JUMP JUMPDEST PUSH1 0x20 DUP3 ADD SWAP1 POP SWAP2 SWAP1 POP JUMP JUMPDEST PUSH1 0x0 PUSH1 0x20 DUP3 ADD SWAP1 POP DUP2 DUP2 SUB PUSH1 0x0 DUP4 ADD MSTORE PUSH2 0xE18 DUP2 PUSH2 0xDDC JUMP JUMPDEST SWAP1 POP SWAP2 SWAP1 POP JUMP JUMPDEST PUSH32 0x4E6F20666C616720666F7220796F750000000000000000000000000000000000 PUSH1 0x0 DUP3 ADD MSTORE POP JUMP JUMPDEST PUSH1 0x0 PUSH2 0xE55 PUSH1 0xF DUP4 PUSH2 0xA37 JUMP JUMPDEST SWAP2 POP PUSH2 0xE60 DUP3 PUSH2 0xE1F JUMP JUMPDEST PUSH1 0x20 DUP3 ADD SWAP1 POP SWAP2 SWAP1 POP JUMP JUMPDEST PUSH1 0x0 PUSH1 0x20 DUP3 ADD SWAP1 POP DUP2 DUP2 SUB PUSH1 0x0 DUP4 ADD MSTORE PUSH2 0xE84 DUP2 PUSH2 0xE48 JUMP JUMPDEST SWAP1 POP SWAP2 SWAP1 POP JUMP JUMPDEST PUSH32 0x4E487B7100000000000000000000000000000000000000000000000000000000 PUSH1 0x0 MSTORE PUSH1 0x22 PUSH1 0x4 MSTORE PUSH1 0x24 PUSH1 0x0 REVERT JUMPDEST PUSH1 0x0 PUSH1 0x2 DUP3 DIV SWAP1 POP PUSH1 0x1 DUP3 AND DUP1 PUSH2 0xED2 JUMPI PUSH1 0x7F DUP3 AND SWAP2 POP JUMPDEST PUSH1 0x20 DUP3 LT DUP2 SUB PUSH2 0xEE5 JUMPI PUSH2 0xEE4 PUSH2 0xE8B JUMP JUMPDEST JUMPDEST POP SWAP2 SWAP1 POP JUMP INVALID LOG2 PUSH5 0x6970667358 0x22 SLT KECCAK256 CODECOPY 0xC9 0xFB OR 0xDB 0xCF 0xE5 0xE3 0xD4 0xAE PUSH10 0xFCFDBFF725B0151AD48D SLT SAR 0x2B DIV 0xD0 0xD7 TIMESTAMP MSTORE SWAP15 PUSH2 0x9064 PUSH20 0x6F6C634300081400334352495349537B626C3063 PUSH12 0x2D636834696E5F31735F6E30 PUSH21 0x5F6330306C5F6275745F643361646C797D00000000 "},"methodIdentifiers":{"balanceOf(address)":"70a08231","deposit()":"d0e30db0","getFlag()":"f9633930","owner()":"8da5cb5b","reset()":"d826f88f","totalVaultBalance()":"cc5d195e","userBalances(address)":"26224c64","vaultDrained()":"b6824603","withdraw(uint256)":"2e1a7d4d","withdrawalCounter()":"20d786b5"}}}}}