{
  "_format": "hh-sol-artifact-1",
  "contractName": "ReentrancyVulnerableVault",
  "sourceName": "contracts/ReentrancyVulnerableVault.sol",
  "abi": [
    {
      "inputs": [],
      "stateMutability": "nonpayable",
      "type": "constructor"
    },
    {
      "anonymous": false,
      "inputs": [
        {
          "indexed": true,
          "internalType": "address",
          "name": "user",
          "type": "address"
        },
        {
          "indexed": false,
          "internalType": "uint256",
          "name": "amount",
          "type": "uint256"
        }
      ],
      "name": "Deposit",
      "type": "event"
    },
    {
      "anonymous": false,
      "inputs": [
        {
          "indexed": true,
          "internalType": "address",
          "name": "attacker",
          "type": "address"
        },
        {
          "indexed": false,
          "internalType": "uint256",
          "name": "drainedAmount",
          "type": "uint256"
        }
      ],
      "name": "VaultDrained",
      "type": "event"
    },
    {
      "anonymous": false,
      "inputs": [
        {
          "indexed": true,
          "internalType": "address",
          "name": "user",
          "type": "address"
        },
        {
          "indexed": false,
          "internalType": "uint256",
          "name": "amount",
          "type": "uint256"
        }
      ],
      "name": "Withdrawal",
      "type": "event"
    },
    {
      "inputs": [
        {
          "internalType": "address",
          "name": "user",
          "type": "address"
        }
      ],
      "name": "balanceOf",
      "outputs": [
        {
          "internalType": "uint256",
          "name": "",
          "type": "uint256"
        }
      ],
      "stateMutability": "view",
      "type": "function"
    },
    {
      "inputs": [],
      "name": "deposit",
      "outputs": [],
      "stateMutability": "payable",
      "type": "function"
    },
    {
      "inputs": [],
      "name": "getFlag",
      "outputs": [
        {
          "internalType": "string",
          "name": "",
          "type": "string"
        }
      ],
      "stateMutability": "view",
      "type": "function"
    },
    {
      "inputs": [],
      "name": "owner",
      "outputs": [
        {
          "internalType": "address",
          "name": "",
          "type": "address"
        }
      ],
      "stateMutability": "view",
      "type": "function"
    },
    {
      "inputs": [],
      "name": "reset",
      "outputs": [],
      "stateMutability": "nonpayable",
      "type": "function"
    },
    {
      "inputs": [],
      "name": "totalVaultBalance",
      "outputs": [
        {
          "internalType": "uint256",
          "name": "",
          "type": "uint256"
        }
      ],
      "stateMutability": "view",
      "type": "function"
    },
    {
      "inputs": [
        {
          "internalType": "address",
          "name": "",
          "type": "address"
        }
      ],
      "name": "userBalances",
      "outputs": [
        {
          "internalType": "uint256",
          "name": "",
          "type": "uint256"
        }
      ],
      "stateMutability": "view",
      "type": "function"
    },
    {
      "inputs": [],
      "name": "vaultDrained",
      "outputs": [
        {
          "internalType": "bool",
          "name": "",
          "type": "bool"
        }
      ],
      "stateMutability": "view",
      "type": "function"
    },
    {
      "inputs": [
        {
          "internalType": "uint256",
          "name": "amount",
          "type": "uint256"
        }
      ],
      "name": "withdraw",
      "outputs": [],
      "stateMutability": "nonpayable",
      "type": "function"
    },
    {
      "inputs": [],
      "name": "withdrawalCounter",
      "outputs": [
        {
          "internalType": "uint256",
          "name": "",
          "type": "uint256"
        }
      ],
      "stateMutability": "view",
      "type": "function"
    },
    {
      "stateMutability": "payable",
      "type": "receive"
    }
  ],
  "bytecode": "0x60806040523480156200001157600080fd5b50336000806101000a81548173ffffffffffffffffffffffffffffffffffffffff021916908373ffffffffffffffffffffffffffffffffffffffff16021790555068056bc75e2d631000006004819055506040518060600160405280602a815260200162001325602a9139600190816200008c91906200030d565b50620003f4565b600081519050919050565b7f4e487b7100000000000000000000000000000000000000000000000000000000600052604160045260246000fd5b7f4e487b7100000000000000000000000000000000000000000000000000000000600052602260045260246000fd5b600060028204905060018216806200011557607f821691505b6020821081036200012b576200012a620000cd565b5b50919050565b60008190508160005260206000209050919050565b60006020601f8301049050919050565b600082821b905092915050565b600060088302620001957fffffffffffffffffffffffffffffffffffffffffffffffffffffffffffffffff8262000156565b620001a1868362000156565b95508019841693508086168417925050509392505050565b6000819050919050565b6000819050919050565b6000620001ee620001e8620001e284620001b9565b620001c3565b620001b9565b9050919050565b6000819050919050565b6200020a83620001cd565b620002226200021982620001f5565b84845462000163565b825550505050565b600090565b620002396200022a565b62000246818484620001ff565b505050565b5b818110156200026e57620002626000826200022f565b6001810190506200024c565b5050565b601f821115620002bd57620002878162000131565b620002928462000146565b81016020851015620002a2578190505b620002ba620002b18562000146565b8301826200024b565b50505b505050565b600082821c905092915050565b6000620002e260001984600802620002c2565b1980831691505092915050565b6000620002fd8383620002cf565b9150826002028217905092915050565b620003188262000093565b67ffffffffffffffff8111156200033457620003336200009e565b5b620003408254620000fc565b6200034d82828562000272565b600060209050601f83116001811462000385576000841562000370578287015190505b6200037c8582620002ef565b865550620003ec565b601f198416620003958662000131565b60005b82811015620003bf5784890151825560018201915060208501945060208101905062000398565b86831015620003df5784890151620003db601f891682620002cf565b8355505b6001600288020188555050505b505050505050565b610f2180620004046000396000f3fe6080604052600436106100955760003560e01c8063b682460311610059578063b68246031461019a578063cc5d195e146101c5578063d0e30db0146101f0578063d826f88f146101fa578063f9633930146102115761009c565b806320d786b5146100a157806326224c64146100cc5780632e1a7d4d1461010957806370a08231146101325780638da5cb5b1461016f5761009c565b3661009c57005b600080fd5b3480156100ad57600080fd5b506100b661023c565b6040516100c391906108c8565b60405180910390f35b3480156100d857600080fd5b506100f360048036038101906100ee9190610946565b610242565b60405161010091906108c8565b60405180910390f35b34801561011557600080fd5b50610130600480360381019061012b919061099f565b61025a565b005b34801561013e57600080fd5b5061015960048036038101906101549190610946565b610565565b60405161016691906108c8565b60405180910390f35b34801561017b57600080fd5b506101846105ae565b60405161019191906109db565b60405180910390f35b3480156101a657600080fd5b506101af6105d2565b6040516101bc9190610a11565b60405180910390f35b3480156101d157600080fd5b506101da6105e5565b6040516101e791906108c8565b60405180910390f35b6101f86105eb565b005b34801561020657600080fd5b5061020f6106c6565b005b34801561021d57600080fd5b506102266107ce565b6040516102339190610abc565b60405180910390f35b60055481565b60036020528060005260406000206000915090505481565b80600360003373ffffffffffffffffffffffffffffffffffffffff1673ffffffffffffffffffffffffffffffffffffffff1681526020019081526020016000205410156102dc576040517f08c379a00000000000000000000000000000000000000000000000000000000081526004016102d390610b2a565b60405180910390fd5b6000811161031f576040517f08c379a000000000000000000000000000000000000000000000000000000000815260040161031690610b96565b60405180910390fd5b806004541015610364576040517f08c379a000000000000000000000000000000000000000000000000000000000815260040161035b90610c02565b60405180910390fd5b6005600081548092919061037790610c51565b919050555060003373ffffffffffffffffffffffffffffffffffffffff16655af3107a40006040516103a890610cca565b60006040518083038185875af1925050503d80600081146103e5576040519150601f19603f3d011682016040523d82523d6000602084013e6103ea565b606091505b505090508061042e576040517f08c379a000000000000000000000000000000000000000000000000000000000815260040161042590610d2b565b60405180910390fd5b81600360003373ffffffffffffffffffffffffffffffffffffffff1673ffffffffffffffffffffffffffffffffffffffff168152602001908152602001600020600082825461047d9190610d4b565b9250508190555081600460008282546104969190610d4b565b925050819055503373ffffffffffffffffffffffffffffffffffffffff167f7fcf532c15f0a6db0bd6d0e038bea71d30d808c7d98cb3bf7268a95bf5081b65836040516104e391906108c8565b60405180910390a2600360055410610561576001600260006101000a81548160ff0219169083151502179055503373ffffffffffffffffffffffffffffffffffffffff167ff25030dea1ced040053b39f74d7a42dd30b2ff8a6c4206fa98f9fceb666cab0860045460405161055891906108c8565b60405180910390a25b5050565b6000600360008373ffffffffffffffffffffffffffffffffffffffff1673ffffffffffffffffffffffffffffffffffffffff168152602001908152602001600020549050919050565b60008054906101000a900473ffffffffffffffffffffffffffffffffffffffff1681565b600260009054906101000a900460ff1681565b60045481565b600080341161060257670de0b6b3a7640000610604565b345b905080600360003373ffffffffffffffffffffffffffffffffffffffff1673ffffffffffffffffffffffffffffffffffffffff16815260200190815260200160002060008282546106559190610d7f565b92505081905550806004600082825461066e9190610d7f565b925050819055503373ffffffffffffffffffffffffffffffffffffffff167fe1fffcc4923d04b559f4d29a8bfc6cda04eb5b0d3c460751c2402c5c5cc9109c826040516106bb91906108c8565b60405180910390a250565b60008054906101000a900473ffffffffffffffffffffffffffffffffffffffff1673ffffffffffffffffffffffffffffffffffffffff163373ffffffffffffffffffffffffffffffffffffffff1614610754576040517f08c379a000000000000000000000000000000000000000000000000000000000815260040161074b90610dff565b60405180910390fd5b6000600260006101000a81548160ff021916908315150217905550600060058190555068056bc75e2d631000006004819055506000600360003373ffffffffffffffffffffffffffffffffffffffff1673ffffffffffffffffffffffffffffffffffffffff16815260200190815260200160002081905550565b6060600260009054906101000a900460ff1661081f576040517f08c379a000000000000000000000000000000000000000000000000000000000815260040161081690610e6b565b60405180910390fd5b6001805461082c90610eba565b80601f016020809104026020016040519081016040528092919081815260200182805461085890610eba565b80156108a55780601f1061087a576101008083540402835291602001916108a5565b820191906000526020600020905b81548152906001019060200180831161088857829003601f168201915b5050505050905090565b6000819050919050565b6108c2816108af565b82525050565b60006020820190506108dd60008301846108b9565b92915050565b600080fd5b600073ffffffffffffffffffffffffffffffffffffffff82169050919050565b6000610913826108e8565b9050919050565b61092381610908565b811461092e57600080fd5b50565b6000813590506109408161091a565b92915050565b60006020828403121561095c5761095b6108e3565b5b600061096a84828501610931565b91505092915050565b61097c816108af565b811461098757600080fd5b50565b60008135905061099981610973565b92915050565b6000602082840312156109b5576109b46108e3565b5b60006109c38482850161098a565b91505092915050565b6109d581610908565b82525050565b60006020820190506109f060008301846109cc565b92915050565b60008115159050919050565b610a0b816109f6565b82525050565b6000602082019050610a266000830184610a02565b92915050565b600081519050919050565b600082825260208201905092915050565b60005b83811015610a66578082015181840152602081019050610a4b565b60008484015250505050565b6000601f19601f8301169050919050565b6000610a8e82610a2c565b610a988185610a37565b9350610aa8818560208601610a48565b610ab181610a72565b840191505092915050565b60006020820190508181036000830152610ad68184610a83565b905092915050565b7f496e73756666696369656e742062616c616e6365000000000000000000000000600082015250565b6000610b14601483610a37565b9150610b1f82610ade565b602082019050919050565b60006020820190508181036000830152610b4381610b07565b9050919050565b7f416d6f756e74206d7573742062652067726561746572207468616e2030000000600082015250565b6000610b80601d83610a37565b9150610b8b82610b4a565b602082019050919050565b60006020820190508181036000830152610baf81610b73565b9050919050565b7f5661756c742068617320696e73756666696369656e742066756e647300000000600082015250565b6000610bec601c83610a37565b9150610bf782610bb6565b602082019050919050565b60006020820190508181036000830152610c1b81610bdf565b9050919050565b7f4e487b7100000000000000000000000000000000000000000000000000000000600052601160045260246000fd5b6000610c5c826108af565b91507fffffffffffffffffffffffffffffffffffffffffffffffffffffffffffffffff8203610c8e57610c8d610c22565b5b600182019050919050565b600081905092915050565b50565b6000610cb4600083610c99565b9150610cbf82610ca4565b600082019050919050565b6000610cd582610ca7565b9150819050919050565b7f45787465726e616c2063616c6c206661696c6564000000000000000000000000600082015250565b6000610d15601483610a37565b9150610d2082610cdf565b602082019050919050565b60006020820190508181036000830152610d4481610d08565b9050919050565b6000610d56826108af565b9150610d61836108af565b9250828203905081811115610d7957610d78610c22565b5b92915050565b6000610d8a826108af565b9150610d95836108af565b9250828201905080821115610dad57610dac610c22565b5b92915050565b7f4e6f7420746865206f776e657200000000000000000000000000000000000000600082015250565b6000610de9600d83610a37565b9150610df482610db3565b602082019050919050565b60006020820190508181036000830152610e1881610ddc565b9050919050565b7f4e6f20666c616720666f7220796f750000000000000000000000000000000000600082015250565b6000610e55600f83610a37565b9150610e6082610e1f565b602082019050919050565b60006020820190508181036000830152610e8481610e48565b9050919050565b7f4e487b7100000000000000000000000000000000000000000000000000000000600052602260045260246000fd5b60006002820490506001821680610ed257607f821691505b602082108103610ee557610ee4610e8b565b5b5091905056fea264697066735822122039c9fb17dbcfe5e3d4ae69fcfdbff725b0151ad48d121d2b04d0d742529e619064736f6c634300081400334352495349537b626c30636b2d636834696e5f31735f6e30745f6330306c5f6275745f643361646c797d",
  "linkReferences": {},
  "deployedLinkReferences": {}
}